{
    "_format": "hh-sol-artifact-1",
    "contractName": "DAOmok",
    "sourceName": "contracts/DAOmok.sol",
    "abi": [
        {
            "inputs": [
                {
                    "internalType": "address",
                    "name": "trustedForwarder",
                    "type": "address"
                },
                {
                    "internalType": "address",
                    "name": "adminRoleAddress",
                    "type": "address"
                },
                {
                    "internalType": "address",
                    "name": "withdrawRoleAddress",
                    "type": "address"
                },
                {
                    "internalType": "address",
                    "name": "pauserRoleAddress",
                    "type": "address"
                },
                {
                    "internalType": "address",
                    "name": "tokenAddress",
                    "type": "address"
                },
                {
                    "internalType": "uint256",
                    "name": "_boardSize",
                    "type": "uint256"
                },
                {
                    "internalType": "uint256",
                    "name": "_turnIntervalSecond",
                    "type": "uint256"
                },
                {
                    "internalType": "uint256",
                    "name": "_rewardValuePerTransaction",
                    "type": "uint256"
                },
                {
                    "internalType": "uint256",
                    "name": "_rewardValuePerTurn",
                    "type": "uint256"
                },
                {
                    "internalType": "uint256",
                    "name": "_maxRewardFromTxCount",
                    "type": "uint256"
                },
                {
                    "internalType": "uint256",
                    "name": "_maxRewardFromTurnCount",
                    "type": "uint256"
                }
            ],
            "stateMutability": "nonpayable",
            "type": "constructor"
        },
        {
            "anonymous": false,
            "inputs": [
                {
                    "indexed": true,
                    "internalType": "uint256",
                    "name": "roundNum",
                    "type": "uint256"
                },
                {
                    "indexed": true,
                    "internalType": "address",
                    "name": "addr",
                    "type": "address"
                },
                {
                    "indexed": false,
                    "internalType": "uint256",
                    "name": "amount",
                    "type": "uint256"
                }
            ],
            "name": "Claim",
            "type": "event"
        },
        {
            "anonymous": false,
            "inputs": [
                {
                    "indexed": true,
                    "internalType": "uint256",
                    "name": "roundNum",
                    "type": "uint256"
                },
                {
                    "indexed": true,
                    "internalType": "enum DAOmok.RoundResult",
                    "name": "roundResult",
                    "type": "uint8"
                },
                {
                    "indexed": false,
                    "internalType": "uint256",
                    "name": "voteCount",
                    "type": "uint256"
                }
            ],
            "name": "DistributeReward",
            "type": "event"
        },
        {
            "anonymous": false,
            "inputs": [
                {
                    "indexed": false,
                    "internalType": "address",
                    "name": "account",
                    "type": "address"
                }
            ],
            "name": "Paused",
            "type": "event"
        },
        {
            "anonymous": false,
            "inputs": [
                {
                    "indexed": true,
                    "internalType": "bytes32",
                    "name": "role",
                    "type": "bytes32"
                },
                {
                    "indexed": true,
                    "internalType": "bytes32",
                    "name": "previousAdminRole",
                    "type": "bytes32"
                },
                {
                    "indexed": true,
                    "internalType": "bytes32",
                    "name": "newAdminRole",
                    "type": "bytes32"
                }
            ],
            "name": "RoleAdminChanged",
            "type": "event"
        },
        {
            "anonymous": false,
            "inputs": [
                {
                    "indexed": true,
                    "internalType": "bytes32",
                    "name": "role",
                    "type": "bytes32"
                },
                {
                    "indexed": true,
                    "internalType": "address",
                    "name": "account",
                    "type": "address"
                },
                {
                    "indexed": true,
                    "internalType": "address",
                    "name": "sender",
                    "type": "address"
                }
            ],
            "name": "RoleGranted",
            "type": "event"
        },
        {
            "anonymous": false,
            "inputs": [
                {
                    "indexed": true,
                    "internalType": "bytes32",
                    "name": "role",
                    "type": "bytes32"
                },
                {
                    "indexed": true,
                    "internalType": "address",
                    "name": "account",
                    "type": "address"
                },
                {
                    "indexed": true,
                    "internalType": "address",
                    "name": "sender",
                    "type": "address"
                }
            ],
            "name": "RoleRevoked",
            "type": "event"
        },
        {
            "anonymous": false,
            "inputs": [
                {
                    "indexed": false,
                    "internalType": "address",
                    "name": "account",
                    "type": "address"
                }
            ],
            "name": "Unpaused",
            "type": "event"
        },
        {
            "anonymous": false,
            "inputs": [
                {
                    "indexed": true,
                    "internalType": "uint256",
                    "name": "roundNum",
                    "type": "uint256"
                },
                {
                    "indexed": true,
                    "internalType": "uint256",
                    "name": "turnNum",
                    "type": "uint256"
                },
                {
                    "indexed": true,
                    "internalType": "address",
                    "name": "addr",
                    "type": "address"
                },
                {
                    "indexed": false,
                    "internalType": "uint8",
                    "name": "x",
                    "type": "uint8"
                },
                {
                    "indexed": false,
                    "internalType": "uint8",
                    "name": "y",
                    "type": "uint8"
                }
            ],
            "name": "Vote",
            "type": "event"
        },
        {
            "inputs": [],
            "name": "DEFAULT_ADMIN_ROLE",
            "outputs": [
                {
                    "internalType": "bytes32",
                    "name": "",
                    "type": "bytes32"
                }
            ],
            "stateMutability": "view",
            "type": "function"
        },
        {
            "inputs": [],
            "name": "PAUSER_ROLE",
            "outputs": [
                {
                    "internalType": "bytes32",
                    "name": "",
                    "type": "bytes32"
                }
            ],
            "stateMutability": "view",
            "type": "function"
        },
        {
            "inputs": [],
            "name": "WITHDRAW_ROLE",
            "outputs": [
                {
                    "internalType": "bytes32",
                    "name": "",
                    "type": "bytes32"
                }
            ],
            "stateMutability": "view",
            "type": "function"
        },
        {
            "inputs": [],
            "name": "boardSize",
            "outputs": [
                {
                    "internalType": "uint256",
                    "name": "",
                    "type": "uint256"
                }
            ],
            "stateMutability": "view",
            "type": "function"
        },
        {
            "inputs": [],
            "name": "calcCurrentRoundNum",
            "outputs": [
                {
                    "internalType": "uint256",
                    "name": "",
                    "type": "uint256"
                }
            ],
            "stateMutability": "view",
            "type": "function"
        },
        {
            "inputs": [
                {
                    "internalType": "uint256",
                    "name": "roundNum",
                    "type": "uint256"
                }
            ],
            "name": "calcCurrentTurnNum",
            "outputs": [
                {
                    "internalType": "uint256",
                    "name": "",
                    "type": "uint256"
                }
            ],
            "stateMutability": "view",
            "type": "function"
        },
        {
            "inputs": [
                {
                    "internalType": "uint256",
                    "name": "roundNum",
                    "type": "uint256"
                }
            ],
            "name": "checkWinningSide",
            "outputs": [
                {
                    "internalType": "enum DAOmok.RoundResult",
                    "name": "",
                    "type": "uint8"
                }
            ],
            "stateMutability": "view",
            "type": "function"
        },
        {
            "inputs": [
                {
                    "internalType": "uint256",
                    "name": "roundNum",
                    "type": "uint256"
                }
            ],
            "name": "claim",
            "outputs": [],
            "stateMutability": "nonpayable",
            "type": "function"
        },
        {
            "inputs": [],
            "name": "closeRound",
            "outputs": [
                {
                    "internalType": "uint256",
                    "name": "",
                    "type": "uint256"
                }
            ],
            "stateMutability": "view",
            "type": "function"
        },
        {
            "inputs": [
                {
                    "internalType": "uint256",
                    "name": "roundNum",
                    "type": "uint256"
                }
            ],
            "name": "distributeReward",
            "outputs": [],
            "stateMutability": "nonpayable",
            "type": "function"
        },
        {
            "inputs": [],
            "name": "getCurrentRoundPlayerCount",
            "outputs": [
                {
                    "internalType": "uint256",
                    "name": "",
                    "type": "uint256"
                },
                {
                    "internalType": "uint256",
                    "name": "",
                    "type": "uint256"
                }
            ],
            "stateMutability": "view",
            "type": "function"
        },
        {
            "inputs": [
                {
                    "internalType": "address",
                    "name": "player",
                    "type": "address"
                }
            ],
            "name": "getCurrentRoundPlayerVoteCount",
            "outputs": [
                {
                    "internalType": "uint256",
                    "name": "",
                    "type": "uint256"
                }
            ],
            "stateMutability": "view",
            "type": "function"
        },
        {
            "inputs": [],
            "name": "getCurrentRoundVoteCount",
            "outputs": [
                {
                    "internalType": "uint256",
                    "name": "",
                    "type": "uint256"
                },
                {
                    "internalType": "uint256",
                    "name": "",
                    "type": "uint256"
                }
            ],
            "stateMutability": "view",
            "type": "function"
        },
        {
            "inputs": [
                {
                    "internalType": "address",
                    "name": "player",
                    "type": "address"
                }
            ],
            "name": "getCurrentSide",
            "outputs": [
                {
                    "internalType": "enum DAOmok.Side",
                    "name": "",
                    "type": "uint8"
                }
            ],
            "stateMutability": "view",
            "type": "function"
        },
        {
            "inputs": [],
            "name": "getCurrentTurnStartTime",
            "outputs": [
                {
                    "internalType": "uint256",
                    "name": "",
                    "type": "uint256"
                }
            ],
            "stateMutability": "view",
            "type": "function"
        },
        {
            "inputs": [],
            "name": "getCurrentTurnVoteCounts",
            "outputs": [
                {
                    "components": [
                        {
                            "internalType": "uint8",
                            "name": "x",
                            "type": "uint8"
                        },
                        {
                            "internalType": "uint8",
                            "name": "y",
                            "type": "uint8"
                        },
                        {
                            "internalType": "uint256",
                            "name": "count",
                            "type": "uint256"
                        }
                    ],
                    "internalType": "struct DAOmok.VoteQueryObject[]",
                    "name": "",
                    "type": "tuple[]"
                }
            ],
            "stateMutability": "view",
            "type": "function"
        },
        {
            "inputs": [
                {
                    "internalType": "address",
                    "name": "player",
                    "type": "address"
                }
            ],
            "name": "getCurrentVote",
            "outputs": [
                {
                    "internalType": "int8",
                    "name": "",
                    "type": "int8"
                },
                {
                    "internalType": "int8",
                    "name": "",
                    "type": "int8"
                }
            ],
            "stateMutability": "view",
            "type": "function"
        },
        {
            "inputs": [
                {
                    "internalType": "uint256",
                    "name": "roundNum",
                    "type": "uint256"
                }
            ],
            "name": "getMoves",
            "outputs": [
                {
                    "components": [
                        {
                            "internalType": "uint8",
                            "name": "x",
                            "type": "uint8"
                        },
                        {
                            "internalType": "uint8",
                            "name": "y",
                            "type": "uint8"
                        }
                    ],
                    "internalType": "struct DAOmok.Position[]",
                    "name": "",
                    "type": "tuple[]"
                }
            ],
            "stateMutability": "view",
            "type": "function"
        },
        {
            "inputs": [
                {
                    "internalType": "uint256",
                    "name": "roundNum",
                    "type": "uint256"
                }
            ],
            "name": "getPlayerCountBySide",
            "outputs": [
                {
                    "internalType": "uint256",
                    "name": "",
                    "type": "uint256"
                },
                {
                    "internalType": "uint256",
                    "name": "",
                    "type": "uint256"
                }
            ],
            "stateMutability": "view",
            "type": "function"
        },
        {
            "inputs": [
                {
                    "internalType": "uint256",
                    "name": "roundNum",
                    "type": "uint256"
                },
                {
                    "internalType": "address",
                    "name": "player",
                    "type": "address"
                }
            ],
            "name": "getPlayerVoteCountByRound",
            "outputs": [
                {
                    "internalType": "uint256",
                    "name": "",
                    "type": "uint256"
                }
            ],
            "stateMutability": "view",
            "type": "function"
        },
        {
            "inputs": [
                {
                    "internalType": "address",
                    "name": "addr",
                    "type": "address"
                },
                {
                    "internalType": "uint256",
                    "name": "roundNum",
                    "type": "uint256"
                }
            ],
            "name": "getReward",
            "outputs": [
                {
                    "components": [
                        {
                            "internalType": "uint256",
                            "name": "amount",
                            "type": "uint256"
                        },
                        {
                            "internalType": "bool",
                            "name": "isReceived",
                            "type": "bool"
                        }
                    ],
                    "internalType": "struct DAOmok.Reward",
                    "name": "",
                    "type": "tuple"
                }
            ],
            "stateMutability": "view",
            "type": "function"
        },
        {
            "inputs": [
                {
                    "internalType": "uint256",
                    "name": "roundNum",
                    "type": "uint256"
                }
            ],
            "name": "getRewardPool",
            "outputs": [
                {
                    "internalType": "uint256",
                    "name": "",
                    "type": "uint256"
                }
            ],
            "stateMutability": "view",
            "type": "function"
        },
        {
            "inputs": [
                {
                    "internalType": "bytes32",
                    "name": "role",
                    "type": "bytes32"
                }
            ],
            "name": "getRoleAdmin",
            "outputs": [
                {
                    "internalType": "bytes32",
                    "name": "",
                    "type": "bytes32"
                }
            ],
            "stateMutability": "view",
            "type": "function"
        },
        {
            "inputs": [
                {
                    "internalType": "uint256",
                    "name": "roundNum",
                    "type": "uint256"
                }
            ],
            "name": "getVoteCountByRound",
            "outputs": [
                {
                    "internalType": "uint256",
                    "name": "",
                    "type": "uint256"
                },
                {
                    "internalType": "uint256",
                    "name": "",
                    "type": "uint256"
                }
            ],
            "stateMutability": "view",
            "type": "function"
        },
        {
            "inputs": [
                {
                    "internalType": "bytes32",
                    "name": "role",
                    "type": "bytes32"
                },
                {
                    "internalType": "address",
                    "name": "account",
                    "type": "address"
                }
            ],
            "name": "grantRole",
            "outputs": [],
            "stateMutability": "nonpayable",
            "type": "function"
        },
        {
            "inputs": [
                {
                    "internalType": "bytes32",
                    "name": "role",
                    "type": "bytes32"
                },
                {
                    "internalType": "address",
                    "name": "account",
                    "type": "address"
                }
            ],
            "name": "hasRole",
            "outputs": [
                {
                    "internalType": "bool",
                    "name": "",
                    "type": "bool"
                }
            ],
            "stateMutability": "view",
            "type": "function"
        },
        {
            "inputs": [
                {
                    "internalType": "uint256",
                    "name": "roundNum",
                    "type": "uint256"
                }
            ],
            "name": "isRewardsDistributedByRound",
            "outputs": [
                {
                    "internalType": "bool",
                    "name": "",
                    "type": "bool"
                }
            ],
            "stateMutability": "view",
            "type": "function"
        },
        {
            "inputs": [
                {
                    "internalType": "address",
                    "name": "forwarder",
                    "type": "address"
                }
            ],
            "name": "isTrustedForwarder",
            "outputs": [
                {
                    "internalType": "bool",
                    "name": "",
                    "type": "bool"
                }
            ],
            "stateMutability": "view",
            "type": "function"
        },
        {
            "inputs": [
                {
                    "internalType": "uint256",
                    "name": "roundNum",
                    "type": "uint256"
                }
            ],
            "name": "makeBoard",
            "outputs": [
                {
                    "internalType": "enum DAOmok.Side[][]",
                    "name": "",
                    "type": "uint8[][]"
                }
            ],
            "stateMutability": "view",
            "type": "function"
        },
        {
            "inputs": [],
            "name": "maxRewardFromTurnCount",
            "outputs": [
                {
                    "internalType": "uint256",
                    "name": "",
                    "type": "uint256"
                }
            ],
            "stateMutability": "view",
            "type": "function"
        },
        {
            "inputs": [],
            "name": "maxRewardFromTxCount",
            "outputs": [
                {
                    "internalType": "uint256",
                    "name": "",
                    "type": "uint256"
                }
            ],
            "stateMutability": "view",
            "type": "function"
        },
        {
            "inputs": [],
            "name": "pause",
            "outputs": [],
            "stateMutability": "nonpayable",
            "type": "function"
        },
        {
            "inputs": [],
            "name": "paused",
            "outputs": [
                {
                    "internalType": "bool",
                    "name": "",
                    "type": "bool"
                }
            ],
            "stateMutability": "view",
            "type": "function"
        },
        {
            "inputs": [
                {
                    "internalType": "address",
                    "name": "",
                    "type": "address"
                },
                {
                    "internalType": "uint256",
                    "name": "",
                    "type": "uint256"
                }
            ],
            "name": "playerToReward",
            "outputs": [
                {
                    "internalType": "uint256",
                    "name": "amount",
                    "type": "uint256"
                },
                {
                    "internalType": "bool",
                    "name": "isReceived",
                    "type": "bool"
                }
            ],
            "stateMutability": "view",
            "type": "function"
        },
        {
            "inputs": [
                {
                    "internalType": "address",
                    "name": "",
                    "type": "address"
                },
                {
                    "internalType": "uint256",
                    "name": "",
                    "type": "uint256"
                }
            ],
            "name": "playerToRewardRounds",
            "outputs": [
                {
                    "internalType": "uint256",
                    "name": "",
                    "type": "uint256"
                }
            ],
            "stateMutability": "view",
            "type": "function"
        },
        {
            "inputs": [
                {
                    "internalType": "bytes32",
                    "name": "role",
                    "type": "bytes32"
                },
                {
                    "internalType": "address",
                    "name": "account",
                    "type": "address"
                }
            ],
            "name": "renounceRole",
            "outputs": [],
            "stateMutability": "nonpayable",
            "type": "function"
        },
        {
            "inputs": [
                {
                    "internalType": "bytes32",
                    "name": "role",
                    "type": "bytes32"
                },
                {
                    "internalType": "address",
                    "name": "account",
                    "type": "address"
                }
            ],
            "name": "revokeRole",
            "outputs": [],
            "stateMutability": "nonpayable",
            "type": "function"
        },
        {
            "inputs": [],
            "name": "rewardValuePerTransaction",
            "outputs": [
                {
                    "internalType": "uint256",
                    "name": "",
                    "type": "uint256"
                }
            ],
            "stateMutability": "view",
            "type": "function"
        },
        {
            "inputs": [],
            "name": "rewardValuePerTurn",
            "outputs": [
                {
                    "internalType": "uint256",
                    "name": "",
                    "type": "uint256"
                }
            ],
            "stateMutability": "view",
            "type": "function"
        },
        {
            "inputs": [
                {
                    "internalType": "enum DAOmok.Side",
                    "name": "side",
                    "type": "uint8"
                }
            ],
            "name": "selectSide",
            "outputs": [],
            "stateMutability": "nonpayable",
            "type": "function"
        },
        {
            "inputs": [
                {
                    "internalType": "uint256",
                    "name": "_boardSize",
                    "type": "uint256"
                }
            ],
            "name": "setBoardSize",
            "outputs": [],
            "stateMutability": "nonpayable",
            "type": "function"
        },
        {
            "inputs": [
                {
                    "internalType": "uint256",
                    "name": "roundNum",
                    "type": "uint256"
                }
            ],
            "name": "setCloseRound",
            "outputs": [],
            "stateMutability": "nonpayable",
            "type": "function"
        },
        {
            "inputs": [
                {
                    "internalType": "uint256",
                    "name": "_maxRewardFromTurnCount",
                    "type": "uint256"
                }
            ],
            "name": "setMaxRewardFromTurnCount",
            "outputs": [],
            "stateMutability": "nonpayable",
            "type": "function"
        },
        {
            "inputs": [
                {
                    "internalType": "uint256",
                    "name": "_maxRewardFromTxCount",
                    "type": "uint256"
                }
            ],
            "name": "setMaxRewardFromTxCount",
            "outputs": [],
            "stateMutability": "nonpayable",
            "type": "function"
        },
        {
            "inputs": [
                {
                    "internalType": "uint256",
                    "name": "_rewardValuePerTransaction",
                    "type": "uint256"
                }
            ],
            "name": "setRewardValuePerTransaction",
            "outputs": [],
            "stateMutability": "nonpayable",
            "type": "function"
        },
        {
            "inputs": [
                {
                    "internalType": "uint256",
                    "name": "_rewardValuePerTurn",
                    "type": "uint256"
                }
            ],
            "name": "setRewardValuePerTurn",
            "outputs": [],
            "stateMutability": "nonpayable",
            "type": "function"
        },
        {
            "inputs": [
                {
                    "internalType": "uint256",
                    "name": "_turnIntervalSecond",
                    "type": "uint256"
                }
            ],
            "name": "setTurnIntervalSecond",
            "outputs": [],
            "stateMutability": "nonpayable",
            "type": "function"
        },
        {
            "inputs": [
                {
                    "internalType": "bytes4",
                    "name": "interfaceId",
                    "type": "bytes4"
                }
            ],
            "name": "supportsInterface",
            "outputs": [
                {
                    "internalType": "bool",
                    "name": "",
                    "type": "bool"
                }
            ],
            "stateMutability": "view",
            "type": "function"
        },
        {
            "inputs": [],
            "name": "turnIntervalSecond",
            "outputs": [
                {
                    "internalType": "uint256",
                    "name": "",
                    "type": "uint256"
                }
            ],
            "stateMutability": "view",
            "type": "function"
        },
        {
            "inputs": [],
            "name": "unpause",
            "outputs": [],
            "stateMutability": "nonpayable",
            "type": "function"
        },
        {
            "inputs": [
                {
                    "internalType": "uint8",
                    "name": "x",
                    "type": "uint8"
                },
                {
                    "internalType": "uint8",
                    "name": "y",
                    "type": "uint8"
                }
            ],
            "name": "vote",
            "outputs": [],
            "stateMutability": "nonpayable",
            "type": "function"
        },
        {
            "inputs": [
                {
                    "internalType": "address",
                    "name": "to",
                    "type": "address"
                },
                {
                    "internalType": "uint256",
                    "name": "amount",
                    "type": "uint256"
                }
            ],
            "name": "withdrawToken",
            "outputs": [],
            "stateMutability": "nonpayable",
            "type": "function"
        }
    ],
    "bytecode": "0x60a060405260006009553480156200001657600080fd5b506040516200425438038062004254833981016040819052620000399162000295565b6000805460ff191681556001600160a01b038c8116608052600a805460010181558252600280546001600160a01b031916918a169190911790556003879055600486905560058590556006849055600783905560088290556200009d908b62000106565b620000c97f5d8e12c39142ff96d79d04d15d1ba1269e4fe57bb9d26f43523628b34ba108ec8a62000106565b620000f57f65d7a28e3265b37a6474929f336521b332c1681b933f6cb9f3376673440d862a8962000106565b5050505050505050505050620003c5565b62000112828262000116565b5050565b60008281526001602090815260408083206001600160a01b038516845290915290205460ff16620001125760008281526001602081815260408084206001600160a01b0386168552909152909120805460ff1916909117905562000179620001bd565b6001600160a01b0316816001600160a01b0316837f2f8788117e7eff1d82e926ec794901d17c78024a50270940304540a733656f0d60405160405180910390a45050565b6000620001d4620001d960201b62002f6c1760201c565b905090565b60003681620001e762000258565b6080519091506001600160a01b031633148015620002055750808210155b156200023c576000366200021a838562000342565b6200022792829062000368565b620002329162000394565b60601c9250505090565b620002516200026f60201b62002fe11760201c565b9250505090565b6000620001d46200027360201b62002fe51760201c565b3390565b601490565b80516001600160a01b03811681146200029057600080fd5b919050565b60008060008060008060008060008060006101608c8e031215620002b857600080fd5b620002c38c62000278565b9a50620002d360208d0162000278565b9950620002e360408d0162000278565b9850620002f360608d0162000278565b97506200030360808d0162000278565b965060a08c0151955060c08c0151945060e08c015193506101008c015192506101208c015191506101408c015190509295989b509295989b9093969950565b6000828210156200036357634e487b7160e01b600052601160045260246000fd5b500390565b600080858511156200037957600080fd5b838611156200038757600080fd5b5050820193919092039150565b6001600160601b03198135818116916014851015620003bd5780818660140360031b1b83161692505b505092915050565b608051613e6c620003e8600039600081816104cb0152612f7c0152613e6c6000f3fe608060405234801561001057600080fd5b506004361061034c5760003560e01c80638456cb59116101bd578063be5a0ff5116100f9578063e02023a1116100a2578063e63ab1e91161007c578063e63ab1e91461078a578063f474c8ce146107b1578063f5baf523146107e1578063fa8c5470146107f457600080fd5b8063e02023a114610752578063e278fe6f14610779578063e52f53041461078257600080fd5b8063d547741f116100d3578063d547741f14610723578063d65d34b614610736578063df49c4de1461073f57600080fd5b8063be5a0ff5146106f1578063c51d69f4146106fa578063c7a8f3fa1461070357600080fd5b806399a3cf9c11610166578063a8b52c2511610140578063a8b52c2514610689578063b462207a146106b6578063b6a88298146106be578063b70ba7d8146106de57600080fd5b806399a3cf9c1461065b5780639e281a981461066e578063a217fddf1461068157600080fd5b806391d148541161019757806391d14854146105fc578063940a4e451461063557806394797ed11461064857600080fd5b80638456cb59146105c15780638fedc8aa146105c9578063905f525e146105e957600080fd5b8063423fd8f21161028c5780635cfa91f4116102355780636b1d15c61161020f5780636b1d15c61461055257806372ac150f146105655780637e91b7c21461056e5780638074d6b71461057757600080fd5b80635cfa91f4146105195780635f460ca61461052c5780636946b0821461053f57600080fd5b8063572b6c0511610266578063572b6c05146104bb578063598f3dec146104fb5780635c975abb1461050e57600080fd5b8063423fd8f21461046b57806346fee6031461047e5780634ca0f1761461049357600080fd5b806324eb5270116102f957806336568abe116102d357806336568abe14610435578063379607f5146104485780633cd89c691461045b5780633f4ba83a1461046357600080fd5b806324eb5270146104065780632a62e52b1461040f5780632f2ff15d1461042257600080fd5b806315fe3d631161032a57806315fe3d63146103ae5780631b795e4c146103c1578063248a9ca3146103e257600080fd5b806301ffc9a7146103515780630ab0eb1a146103795780630d0f811d14610399575b600080fd5b61036461035f366004613821565b6107fc565b60405190151581526020015b60405180910390f35b61038c610387366004613867565b610865565b60405161037091906138ac565b6103ac6103a73660046138ba565b6108cb565b005b6103646103bc3660046138ba565b6108dc565b6103d46103cf3660046138d3565b610965565b604051908152602001610370565b6103d46103f03660046138ba565b6000908152600160208190526040909120015490565b6103d460085481565b6103ac61041d3660046138ba565b610996565b6103ac6104303660046138fd565b6109b4565b6103ac6104433660046138fd565b6109df565b6103ac6104563660046138ba565b610a7b565b6103d4610c26565b6103ac610cd9565b6103ac6104793660046138ba565b610d0e565b610486610d1f565b6040516103709190613929565b6104a66104a13660046138ba565b611001565b60408051928352602083019190915201610370565b6103646104c9366004613867565b7f00000000000000000000000000000000000000000000000000000000000000006001600160a01b0390811691161490565b6103ac6105093660046138ba565b61120a565b60005460ff16610364565b6103d46105273660046138ba565b61121b565b6103ac61053a366004613988565b611310565b6103d461054d3660046138fd565b6115a0565b6103d4610560366004613867565b6116a4565b6103d460045481565b6103d460075481565b6105ac6105853660046138d3565b600b6020908152600092835260408084209091529082529020805460019091015460ff1682565b60408051928352901515602083015201610370565b6103ac6116c2565b6105dc6105d73660046138ba565b6116f4565b60405161037091906139a9565b6103d46105f73660046138ba565b611899565b61036461060a3660046138fd565b60009182526001602090815260408084206001600160a01b0393909316845291905290205460ff1690565b6103ac6106433660046138ba565b6119e3565b6103ac6106563660046138ba565b611dfa565b6103ac6106693660046138ba565b611e18565b6103ac61067c3660046138d3565b611e29565b6103d4600081565b61069c610697366004613867565b611f2f565b60408051600093840b81529190920b602082015201610370565b6104a6611f69565b6106d16106cc3660046138ba565b612003565b60405161037091906139c3565b6103ac6106ec3660046138ba565b612645565b6103d460055481565b6103d460035481565b6107166107113660046138ba565b612689565b6040516103709190613a0c565b6103ac6107313660046138fd565b6128c2565b6103d460065481565b6103ac61074d366004613aae565b6128e8565b6103d47f5d8e12c39142ff96d79d04d15d1ba1269e4fe57bb9d26f43523628b34ba108ec81565b6103d460095481565b6103d4612e0d565b6103d47f65d7a28e3265b37a6474929f336521b332c1681b933f6cb9f3376673440d862a81565b6107c46107bf3660046138d3565b612e54565b604080518251815260209283015115159281019290925201610370565b6104a66107ef3660046138ba565b612efd565b6104a6612f4b565b60006001600160e01b031982167f7965db0b00000000000000000000000000000000000000000000000000000000148061085f57507f01ffc9a7000000000000000000000000000000000000000000000000000000006001600160e01b03198316145b92915050565b600080610870612e0d565b600a549091508114156108865750600092915050565b600a818154811061089957610899613ad8565b600091825260208083206001600160a01b03909616835260016005909202909501019093525050604090205460ff1690565b60006108d681612fea565b50600555565b600a5460009082106109355760405162461bcd60e51b815260206004820152600d60248201527f496e76616c696420726f756e640000000000000000000000000000000000000060448201526064015b60405180910390fd5b600a828154811061094857610948613ad8565b600091825260209091206004600590920201015460ff1692915050565b600c602052816000526040600020818154811061098157600080fd5b90600052602060002001600091509150505481565b60006109a181612fea565b600482116109ae57600080fd5b50600355565b600082815260016020819052604090912001546109d081612fea565b6109da8383612ffb565b505050565b6109e761309f565b6001600160a01b0316816001600160a01b031614610a6d5760405162461bcd60e51b815260206004820152602f60248201527f416363657373436f6e74726f6c3a2063616e206f6e6c792072656e6f756e636560448201527f20726f6c657320666f722073656c660000000000000000000000000000000000606482015260840161092c565b610a7782826130a9565b5050565b610a8361314a565b6000610a96610a9061309f565b83612e54565b8051909150610ae75760405162461bcd60e51b815260206004820152601460248201527f4e6f2072657761726420617661696c61626c652e000000000000000000000000604482015260640161092c565b602081015115610b395760405162461bcd60e51b815260206004820152601760248201527f52657761726420616c726561647920636c61696d65642e000000000000000000604482015260640161092c565b6002546001600160a01b031663a9059cbb610b5261309f565b835160405160e084901b6001600160e01b03191681526001600160a01b0390921660048301526024820152604401602060405180830381600087803b158015610b9a57600080fd5b505af1158015610bae573d6000803e3d6000fd5b505050506040513d601f19601f82011682018060405250810190610bd29190613aee565b50610bdb61309f565b6001600160a01b0316827f3ed1528b0fdc7c5207c1bf935e34a667e13656b9ed165260c522be0bc544f3038360000151604051610c1a91815260200190565b60405180910390a35050565b600080610c31612e0d565b600a54909150811415610c4657600091505090565b6000610c5182611899565b9050600a8281548110610c6657610c66613ad8565b906000526020600020906005020160030180549050811415610c8b5760009250505090565b600a8281548110610c9e57610c9e613ad8565b90600052602060002090600502016003018181548110610cc057610cc0613ad8565b9060005260206000209060060201600001549250505090565b7f65d7a28e3265b37a6474929f336521b332c1681b933f6cb9f3376673440d862a610d0381612fea565b610d0b61319f565b50565b6000610d1981612fea565b50600655565b6060806000610d2c612e0d565b600a54909150811415610d3f5750919050565b6000610d4a82611899565b905080600a8381548110610d6057610d60613ad8565b9060005260206000209060050201600301805490501415610d8357509092915050565b6000600a8381548110610d9857610d98613ad8565b90600052602060002090600502016003018281548110610dba57610dba613ad8565b9060005260206000209060060201600301805480602002602001604051908101604052809291908181526020018280548015610e3d57602002820191906000526020600020906000905b82829054906101000a900461ffff1661ffff1681526020019060020190602082600101049283019260010382029150808411610e045790505b50505050509050805167ffffffffffffffff811115610e5e57610e5e613b10565b604051908082528060200260200182016040528015610ea957816020015b6040805160608101825260008082526020808301829052928201528252600019909201910181610e7c5790505b50935060005b8151811015610ff7576000610f0b838381518110610ecf57610ecf613ad8565b60200260200101516040805180820182526000808252602091820152815180830190925260ff600884901c811683529092169181019190915290565b9050604051806060016040528060018360000151610f299190613b3c565b60ff16815260200160018360200151610f429190613b3c565b60ff168152602001600a8781548110610f5d57610f5d613ad8565b90600052602060002090600502016003018681548110610f7f57610f7f613ad8565b90600052602060002090600602016004016000868681518110610fa457610fa4613ad8565b602002602001015161ffff1661ffff16815260200190815260200160002054815250868381518110610fd857610fd8613ad8565b6020026020010181905250508080610fef90613b5f565b915050610eaf565b5092949350505050565b600a546000908190831061101a57506000928392509050565b6000600a848154811061102f5761102f613ad8565b9060005260206000209060050201600301905060008060005b83548110156111fe5760005b84828154811061106657611066613ad8565b9060005260206000209060060201600301805490508110156111eb5761108d600283613b90565b611137578482815481106110a3576110a3613ad8565b906000526020600020906006020160040160008684815481106110c8576110c8613ad8565b906000526020600020906006020160030183815481106110ea576110ea613ad8565b90600052602060002090601091828204019190066002029054906101000a900461ffff1661ffff1661ffff16815260200190815260200160002054846111309190613ba4565b93506111d9565b84828154811061114957611149613ad8565b9060005260206000209060060201600401600086848154811061116e5761116e613ad8565b9060005260206000209060060201600301838154811061119057611190613ad8565b90600052602060002090601091828204019190066002029054906101000a900461ffff1661ffff1661ffff16815260200190815260200160002054836111d69190613ba4565b92505b806111e381613b5f565b915050611054565b50806111f681613b5f565b915050611048565b50909590945092505050565b600061121581612fea565b50600755565b600a54600090821061126f5760405162461bcd60e51b815260206004820152601460248201527f496e76616c696420726f756e64206e756d626572000000000000000000000000604482015260640161092c565b60008061127b84611001565b9092509050600061128c8284613ba4565b905060008160055461129e9190613bbc565b905060006112d4600a88815481106112b8576112b8613ad8565b90600052602060002090600502016003018054905060016131f7565b6006546112e19190613bbc565b90506112ef8160085461320d565b6112fb8360075461320d565b6113059190613ba4565b979650505050505050565b61131861314a565b6009541580611330575061132a612e0d565b60095410155b61137c5760405162461bcd60e51b815260206004820152601460248201527f5365727669636520756e617661696c61626c652e000000000000000000000000604482015260640161092c565b6000611386612e0d565b9050600061139561038761309f565b60028111156113a6576113a6613882565b146113f35760405162461bcd60e51b815260206004820152601060248201527f416c72656164792073656c656374656400000000000000000000000000000000604482015260640161092c565b600a5481141561145c57600a8054600101815560005280158015906114495750600a611420600183613bdb565b8154811061143057611430613ad8565b600091825260209091206004600590920201015460ff16155b1561145c5761145c610643600183613bdb565b81600a828154811061147057611470613ad8565b9060005260206000209060050201600101600061148b61309f565b6001600160a01b031681526020810191909152604001600020805460ff191660018360028111156114be576114be613882565b0217905550600a81815481106114d6576114d6613ad8565b90600052602060002090600502016000016114ef61309f565b815460018101835560009283526020909220909101805473ffffffffffffffffffffffffffffffffffffffff19166001600160a01b03909216919091179055600a80548290811061154257611542613ad8565b9060005260206000209060050201600201600083600281111561156757611567613882565b600281111561157857611578613882565b8152602001908152602001600020600081548092919061159790613b5f565b91905055505050565b600a5460009083106115b45750600061085f565b6000600a84815481106115c9576115c9613ad8565b906000526020600020906005020160030190506000805b825481101561169b578281815481106115fb576115fb613ad8565b600091825260208083206001600160a01b03891684526002600690930201919091019052604090205460ff1615801590611676575082818154811061164257611642613ad8565b600091825260208083206001600160a01b038916845260069290920290910160020190526040902054610100900460ff1615155b15611689578161168581613b5f565b9250505b8061169381613b5f565b9150506115e0565b50949350505050565b6000806116af612e0d565b90506116bb81846115a0565b9392505050565b7f65d7a28e3265b37a6474929f336521b332c1681b933f6cb9f3376673440d862a6116ec81612fea565b610d0b61321c565b60008061170083612689565b9050600160005b60035481101561187e5760005b60035481101561186b57600084838151811061173257611732613ad8565b6020026020010151828151811061174b5761174b613ad8565b6020026020010151600281111561176457611764613882565b14156117735760009250611859565b600084838151811061178757611787613ad8565b602002602001015182815181106117a0576117a0613ad8565b602002602001015190506117ba858484600160008661325a565b156117e2578060028111156117d1576117d1613882565b600381111561130557611305613882565b6117f2858484600060018661325a565b15611809578060028111156117d1576117d1613882565b6118188584846001808661325a565b1561182f578060028111156117d1576117d1613882565b61184085848460016000198661325a565b15611857578060028111156117d1576117d1613882565b505b8061186381613b5f565b915050611714565b508061187681613b5f565b915050611707565b50801561188f575060039392505050565b5060009392505050565b600a546000908214156118ae57506000919050565b600a82815481106118c1576118c1613ad8565b60009182526020909120600360059092020101546118e157506000919050565b60004290506000600a84815481106118fb576118fb613ad8565b90600052602060002090600502016003016001600a868154811061192157611921613ad8565b9060005260206000209060050201600301805490506119409190613bdb565b8154811061195057611950613ad8565b906000526020600020906006020160000154905060045481836119739190613bdb565b106119a757600a848154811061198b5761198b613ad8565b6000918252602090912060036005909202010154949350505050565b6001600a85815481106119bc576119bc613ad8565b9060005260206000209060050201600301805490506119db9190613bdb565b949350505050565b6119eb61314a565b60006119f6826116f4565b90506000816003811115611a0c57611a0c613882565b1415611a5a5760405162461bcd60e51b815260206004820152601c60248201527f54686520726f756e6420686173206e6f742079657420656e6465642e00000000604482015260640161092c565b600a8281548110611a6d57611a6d613ad8565b600091825260209091206004600590920201015460ff1615611ad15760405162461bcd60e51b815260206004820152601260248201527f416c72656164792070726f6365737365642e0000000000000000000000000000604482015260640161092c565b600080611add84611001565b909250905060006001846003811115611af857611af8613882565b1415611b05575081611b33565b6001846003811115611b1957611b19613882565b1415611b26575080611b33565b611b308284613ba4565b90505b6000611b3e8661121b565b90506000611b4c8383613bf2565b905060005b600a8881548110611b6457611b64613ad8565b6000918252602090912060059091020154811015611d6d576000600a8981548110611b9157611b91613ad8565b90600052602060002090600502016000018281548110611bb357611bb3613ad8565b6000918252602082200154600a80546001600160a01b039092169350908b908110611be057611be0613ad8565b600091825260208083206001600160a01b03861684526001600590930201919091019052604090205460ff166002811115611c1d57611c1d613882565b6003811115611c2e57611c2e613882565b90506003896003811115611c4457611c44613882565b1480611c715750886003811115611c5d57611c5d613882565b816003811115611c6f57611c6f613882565b145b15611d58576000611c828b846115a0565b905060405180604001604052808287611c9b9190613bbc565b815260200160001515815250600b6000856001600160a01b03166001600160a01b0316815260200190815260200160002060008d81526020019081526020016000206000820151816000015560208201518160010160006101000a81548160ff021916908315150217905550905050600c6000846001600160a01b03166001600160a01b031681526020019081526020016000208b9080600181540180825580915050600190039060005260206000200160009091909190915055505b50508080611d6590613b5f565b915050611b51565b506001600a8881548110611d8357611d83613ad8565b60009182526020909120600590910201600401805460ff1916911515919091179055856003811115611db757611db7613882565b877f9a0d247a2adfec25f57c8e478cb6d2dbb2172cd7423fe63ac2c568ab422585f785604051611de991815260200190565b60405180910390a350505050505050565b6000611e0581612fea565b60008211611e1257600080fd5b50600455565b6000611e2381612fea565b50600855565b7f5d8e12c39142ff96d79d04d15d1ba1269e4fe57bb9d26f43523628b34ba108ec611e5381612fea565b6001600160a01b03831615801590611e7457506001600160a01b0383163014155b611e7d57600080fd5b60008211611e8a57600080fd5b6002546040517fa9059cbb0000000000000000000000000000000000000000000000000000000081526001600160a01b038581166004830152602482018590529091169063a9059cbb90604401602060405180830381600087803b158015611ef157600080fd5b505af1158015611f05573d6000803e3d6000fd5b505050506040513d601f19601f82011682018060405250810190611f299190613aee565b50505050565b6000806000611f3d84613312565b8051909150611f4e90600190613c06565b60018260200151611f5f9190613c06565b9250925050915091565b6000806000611f76612e0d565b600a54909150811415611f8e57506000928392509050565b600a8181548110611fa157611fa1613ad8565b60009182526020822060059190910201600201906001815260200190815260200160002054600a8281548110611fd957611fd9613ad8565b60009182526020808320600280855260059390930201909101905260409020549094909350915050565b600a5460609082106120575760405162461bcd60e51b815260206004820152601460248201527f496e76616c696420726f756e64206e756d626572000000000000000000000000604482015260640161092c565b6000600a838154811061206c5761206c613ad8565b906000526020600020906005020160030190506060600082805490501180156120d25750600454825483906120a390600190613bdb565b815481106120b3576120b3613ad8565b906000526020600020906006020160000154426120d09190613bdb565b105b1561214a5781546120e590600190613bdb565b67ffffffffffffffff8111156120fd576120fd613b10565b60405190808252806020026020018201604052801561214257816020015b604080518082019091526000808252602082015281526020019060019003908161211b5790505b5090506121ad565b815467ffffffffffffffff81111561216457612164613b10565b6040519080825280602002602001820160405280156121a957816020015b60408051808201909152600080825260208201528152602001906001900390816121825790505b5090505b60005b815181101561263d576000805b8483815481106121cf576121cf613ad8565b90600052602060002090600602016003018054905081101561253b578483815481106121fd576121fd613ad8565b906000526020600020906006020160040160008361ffff1661ffff1681526020019081526020016000205485848154811061223a5761223a613ad8565b9060005260206000209060060201600401600087868154811061225f5761225f613ad8565b9060005260206000209060060201600301848154811061228157612281613ad8565b90600052602060002090601091828204019190066002029054906101000a900461ffff1661ffff1661ffff16815260200190815260200160002054111561231d578483815481106122d4576122d4613ad8565b906000526020600020906006020160030181815481106122f6576122f6613ad8565b90600052602060002090601091828204019190066002029054906101000a900461ffff1691505b84838154811061232f5761232f613ad8565b906000526020600020906006020160040160008361ffff1661ffff1681526020019081526020016000205485848154811061236c5761236c613ad8565b9060005260206000209060060201600401600087868154811061239157612391613ad8565b906000526020600020906006020160030184815481106123b3576123b3613ad8565b90600052602060002090601091828204019190066002029054906101000a900461ffff1661ffff1661ffff168152602001908152602001600020541480156124c9575084838154811061240857612408613ad8565b906000526020600020906006020160050160008361ffff1661ffff1681526020019081526020016000205485848154811061244557612445613ad8565b9060005260206000209060060201600501600087868154811061246a5761246a613ad8565b9060005260206000209060060201600301848154811061248c5761248c613ad8565b90600052602060002090601091828204019190066002029054906101000a900461ffff1661ffff1661ffff16815260200190815260200160002054105b15612529578483815481106124e0576124e0613ad8565b9060005260206000209060060201600301818154811061250257612502613ad8565b90600052602060002090601091828204019190066002029054906101000a900461ffff1691505b8061253381613b5f565b9150506121bd565b506040805180820182526000808252602091820152815180830190925260ff600884901c8116835283169082015283838151811061257b5761257b613ad8565b6020026020010181905250600183838151811061259a5761259a613ad8565b6020026020010151600001516125b09190613b3c565b8383815181106125c2576125c2613ad8565b60200260200101516000019060ff16908160ff168152505060018383815181106125ee576125ee613ad8565b6020026020010151602001516126049190613b3c565b83838151811061261657612616613ad8565b60209081029190910181015160ff909216910152508061263581613b5f565b9150506121b0565b509392505050565b7f65d7a28e3265b37a6474929f336521b332c1681b933f6cb9f3376673440d862a61266f81612fea565b612677612e0d565b82101561268357600080fd5b50600955565b6060600061269683612003565b9050600060035467ffffffffffffffff8111156126b5576126b5613b10565b6040519080825280602002602001820160405280156126e857816020015b60608152602001906001900390816126d35790505b50905060005b6003548110156127e85760035467ffffffffffffffff81111561271357612713613b10565b60405190808252806020026020018201604052801561273c578160200160208202803683370190505b5082828151811061274f5761274f613ad8565b602002602001018190525060005b6003548110156127d557600083838151811061277b5761277b613ad8565b6020026020010151828151811061279457612794613ad8565b602002602001019060028111156127ad576127ad613882565b908160028111156127c0576127c0613882565b905250806127cd81613b5f565b91505061275d565b50806127e081613b5f565b9150506126ee565b5060005b825181101561263d576000612802600283613b90565b1561280e576002612811565b60015b9050808385848151811061282757612827613ad8565b60200260200101516000015160ff168151811061284657612846613ad8565b602002602001015185848151811061286057612860613ad8565b60200260200101516020015160ff168151811061287f5761287f613ad8565b6020026020010190600281111561289857612898613882565b908160028111156128ab576128ab613882565b9052508190506128ba81613b5f565b9150506127ec565b600082815260016020819052604090912001546128de81612fea565b6109da83836130a9565b6128f061314a565b60095415806129085750612902612e0d565b60095410155b6129545760405162461bcd60e51b815260206004820152601460248201527f5365727669636520756e617661696c61626c652e000000000000000000000000604482015260640161092c565b600061295e612e0d565b9050600061296b82611899565b9050600061297a61038761309f565b600281111561298b5761298b613882565b14156129d95760405162461bcd60e51b815260206004820152601260248201527f53696465206e6f742073656c65637465642e0000000000000000000000000000604482015260640161092c565b600a82815481106129ec576129ec613ad8565b90600052602060002090600502016001016000612a0761309f565b6001600160a01b0316815260208101919091526040016000205460ff166002811115612a3557612a35613882565b612a3e82613438565b6002811115612a4f57612a4f613882565b14612a9c5760405162461bcd60e51b815260206004820152600c60248201527f496e76616c696420736964650000000000000000000000000000000000000000604482015260640161092c565b612aa7828585613459565b612af35760405162461bcd60e51b815260206004820152601060248201527f496e76616c696420706f736974696f6e00000000000000000000000000000000604482015260640161092c565b612b03612afe61309f565b61351c565b15612b505760405162461bcd60e51b815260206004820152600d60248201527f416c726561647920766f74656400000000000000000000000000000000000000604482015260640161092c565b600a8281548110612b6357612b63613ad8565b906000526020600020906005020160030180549050811415612bf857600a8281548110612b9257612b92613ad8565b600091825260208220600360059092020101805460010181559052600a805442919084908110612bc457612bc4613ad8565b90600052602060002090600502016003018281548110612be657612be6613ad8565b60009182526020909120600690910201555b6000600a8381548110612c0d57612c0d613ad8565b90600052602060002090600502016003018281548110612c2f57612c2f613ad8565b9060005260206000209060060201905060006040518060400160405280876001612c599190613c47565b60ff168152602001612c6c876001613c47565b60ff16905290506000612c7e82613547565b905082600101612c8c61309f565b815460018101835560009283526020832001805473ffffffffffffffffffffffffffffffffffffffff19166001600160a01b039290921691909117905582906002850190612cd861309f565b6001600160a01b0316815260208082019290925260409081016000908120845181549585015160ff9081166101000261ffff199097169116179490941790935561ffff8416835260048601909152902054612d6b576003830180546001810182556000918252602090912060108204018054600f9092166002026101000a61ffff81810219909316928416029190911790555b61ffff811660009081526004840160205260408120805491612d8c83613b5f565b909155505061ffff811660009081526005840160205260409020429055612db161309f565b6001600160a01b031684867f3a690b09ef1d558ac08dbddd64965614e610f1d4a721f7d5ce8579bc95b143548a8a604051612dfc92919060ff92831681529116602082015260400190565b60405180910390a450505050505050565b600080600a54612e23906105d790600190613bdb565b6003811115612e3457612e34613882565b14612e405750600a5490565b600a54612e4f90600190613bdb565b905090565b6040805180820190915260008082526020820152600a548210612eb95760405162461bcd60e51b815260206004820152601460248201527f496e76616c696420726f756e64206e756d626572000000000000000000000000604482015260640161092c565b506001600160a01b0382166000908152600b602090815260408083208484528252918290208251808401909352805483526001015460ff1615159082015292915050565b600080600a8381548110612f1357612f13613ad8565b60009182526020822060059190910201600201906001815260200190815260200160002054600a8481548110611fd957611fd9613ad8565b6000806000612f58612e0d565b9050612f6381611001565b92509250509091565b6000366014336001600160a01b037f000000000000000000000000000000000000000000000000000000000000000016148015612fa95750808210155b15612fd957600036612fbb8385613bdb565b612fc6928290613c6c565b612fcf91613c96565b60601c9250505090565b339250505090565b3390565b601490565b610d0b81612ff661309f565b613567565b60008281526001602090815260408083206001600160a01b038516845290915290205460ff16610a775760008281526001602081815260408084206001600160a01b0386168552909152909120805460ff1916909117905561305b61309f565b6001600160a01b0316816001600160a01b0316837f2f8788117e7eff1d82e926ec794901d17c78024a50270940304540a733656f0d60405160405180910390a45050565b6000612e4f612f6c565b60008281526001602090815260408083206001600160a01b038516845290915290205460ff1615610a775760008281526001602090815260408083206001600160a01b03851684529091529020805460ff1916905561310661309f565b6001600160a01b0316816001600160a01b0316837ff6391f5c32d9c69d2a47ea670b442974b53935d1edc7fd64eb21e047a839171b60405160405180910390a45050565b60005460ff161561319d5760405162461bcd60e51b815260206004820152601060248201527f5061757361626c653a2070617573656400000000000000000000000000000000604482015260640161092c565b565b6131a76135dc565b6000805460ff191690557f5db9ee0a495bf2e6ff9c91a7834c1ba4fdd244a5e8aa4e537bd38aeae4b073aa6131da61309f565b6040516001600160a01b03909116815260200160405180910390a1565b600081831161320657816116bb565b5090919050565b600081831061320657816116bb565b61322461314a565b6000805460ff191660011790557f62e78cea01bee320cd4e420270b5ea74000d11b0c9f74754ebdbfc544b05a2586131da61309f565b60008086865b60035482108015613272575060035481105b80156132d1575084600281111561328b5761328b613882565b8a838151811061329d5761329d613ad8565b602002602001015182815181106132b6576132b6613ad8565b602002602001015160028111156132cf576132cf613882565b145b1561330157826132e081613b5f565b93506132ee90508783613ccb565b91506132fa8682613ccb565b9050613260565b505060051115979650505050505050565b60408051808201909152600080825260208201526000613330612e0d565b600a549091508114156133585750506040805180820190915260008082526020820152919050565b600061336382611899565b9050600a828154811061337857613378613ad8565b9060005260206000209060050201600301805490508114156133b0575050604080518082019091526000808252602082015292915050565b6000600a83815481106133c5576133c5613ad8565b906000526020600020906005020160030182815481106133e7576133e7613ad8565b600091825260208083206001600160a01b0390981683526002600690920290970101865260409081902081518083019092525460ff8082168352610100909104169581019590955250929392505050565b6000613445600283613b90565b1561345157600261085f565b600192915050565b60006003548360ff1610158061347457506003548260ff1610155b15613481575060006116bb565b600061348c85612003565b905060005b8151811015613510578460ff168282815181106134b0576134b0613ad8565b60200260200101516000015160ff161480156134ee57508360ff168282815181106134dd576134dd613ad8565b60200260200101516020015160ff16145b156134fe576000925050506116bb565b8061350881613b5f565b915050613491565b50600195945050505050565b60008061352883613312565b805190915060ff161515806116bb57506020015160ff16151592915050565b600061085f8260000151836020015160ff1660089190911b61ff00161790565b60008281526001602090815260408083206001600160a01b038516845290915290205460ff16610a775761359a8161362e565b6135a5836020613640565b6040516020016135b6929190613d6b565b60408051601f198184030181529082905262461bcd60e51b825261092c91600401613dec565b60005460ff1661319d5760405162461bcd60e51b815260206004820152601460248201527f5061757361626c653a206e6f7420706175736564000000000000000000000000604482015260640161092c565b606061085f6001600160a01b03831660145b6060600061364f836002613bbc565b61365a906002613ba4565b67ffffffffffffffff81111561367257613672613b10565b6040519080825280601f01601f19166020018201604052801561369c576020820181803683370190505b5090507f3000000000000000000000000000000000000000000000000000000000000000816000815181106136d3576136d3613ad8565b60200101906001600160f81b031916908160001a9053507f78000000000000000000000000000000000000000000000000000000000000008160018151811061371e5761371e613ad8565b60200101906001600160f81b031916908160001a9053506000613742846002613bbc565b61374d906001613ba4565b90505b60018111156137d2577f303132333435363738396162636465660000000000000000000000000000000085600f166010811061378e5761378e613ad8565b1a60f81b8282815181106137a4576137a4613ad8565b60200101906001600160f81b031916908160001a90535060049490941c936137cb81613e1f565b9050613750565b5083156116bb5760405162461bcd60e51b815260206004820181905260248201527f537472696e67733a20686578206c656e67746820696e73756666696369656e74604482015260640161092c565b60006020828403121561383357600080fd5b81356001600160e01b0319811681146116bb57600080fd5b80356001600160a01b038116811461386257600080fd5b919050565b60006020828403121561387957600080fd5b6116bb8261384b565b634e487b7160e01b600052602160045260246000fd5b600381106138a8576138a8613882565b9052565b6020810161085f8284613898565b6000602082840312156138cc57600080fd5b5035919050565b600080604083850312156138e657600080fd5b6138ef8361384b565b946020939093013593505050565b6000806040838503121561391057600080fd5b823591506139206020840161384b565b90509250929050565b602080825282518282018190526000919060409081850190868401855b8281101561397b578151805160ff90811686528782015116878601528501518585015260609093019290850190600101613946565b5091979650505050505050565b60006020828403121561399a57600080fd5b8135600381106116bb57600080fd5b60208101600483106139bd576139bd613882565b91905290565b602080825282518282018190526000919060409081850190868401855b8281101561397b578151805160ff908116865290870151168685015292840192908501906001016139e0565b6000602080830181845280855180835260408601915060408160051b87010192508387016000805b83811015613a8f57888603603f19018552825180518088529088019088880190845b81811015613a7957613a69838551613898565b928a0192918a0191600101613a56565b5090975050509386019391860191600101613a34565b509398975050505050505050565b803560ff8116811461386257600080fd5b60008060408385031215613ac157600080fd5b613aca83613a9d565b915061392060208401613a9d565b634e487b7160e01b600052603260045260246000fd5b600060208284031215613b0057600080fd5b815180151581146116bb57600080fd5b634e487b7160e01b600052604160045260246000fd5b634e487b7160e01b600052601160045260246000fd5b600060ff821660ff841680821015613b5657613b56613b26565b90039392505050565b6000600019821415613b7357613b73613b26565b5060010190565b634e487b7160e01b600052601260045260246000fd5b600082613b9f57613b9f613b7a565b500690565b60008219821115613bb757613bb7613b26565b500190565b6000816000190483118215151615613bd657613bd6613b26565b500290565b600082821015613bed57613bed613b26565b500390565b600082613c0157613c01613b7a565b500490565b600081810b83820b8281128015607f19830184121615613c2857613c28613b26565b81607f018313811615613c3d57613c3d613b26565b5090039392505050565b600060ff821660ff84168060ff03821115613c6457613c64613b26565b019392505050565b60008085851115613c7c57600080fd5b83861115613c8957600080fd5b5050820193919092039150565b6bffffffffffffffffffffffff198135818116916014851015613cc35780818660140360031b1b83161692505b505092915050565b6000808212827f7fffffffffffffffffffffffffffffffffffffffffffffffffffffffffffffff03841381151615613d0557613d05613b26565b827f8000000000000000000000000000000000000000000000000000000000000000038412811615613d3957613d39613b26565b50500190565b60005b83811015613d5a578181015183820152602001613d42565b83811115611f295750506000910152565b7f416363657373436f6e74726f6c3a206163636f756e7420000000000000000000815260008351613da3816017850160208801613d3f565b7f206973206d697373696e6720726f6c65200000000000000000000000000000006017918401918201528351613de0816028840160208801613d3f565b01602801949350505050565b6020815260008251806020840152613e0b816040850160208701613d3f565b601f01601f19169190910160400192915050565b600081613e2e57613e2e613b26565b50600019019056fea2646970667358221220b623e4eecdaf7bac58ad7b93d3033ace3814a53dcf3f1dce9fe0df220f8e6c7464736f6c63430008090033",
    "linkReferences": {},
    "deployedLinkReferences": {}
}