{
    "_format": "hh-sol-artifact-1",
    "contractName": "ERC20GSN",
    "sourceName": "contracts/ERC20GSN.sol",
    "abi": [
        {
            "inputs": [
                {
                    "internalType": "string",
                    "name": "name_",
                    "type": "string"
                },
                {
                    "internalType": "string",
                    "name": "symbol_",
                    "type": "string"
                },
                {
                    "internalType": "address",
                    "name": "forwarder_",
                    "type": "address"
                }
            ],
            "stateMutability": "nonpayable",
            "type": "constructor"
        },
        {
            "anonymous": false,
            "inputs": [
                {
                    "indexed": true,
                    "internalType": "address",
                    "name": "owner",
                    "type": "address"
                },
                {
                    "indexed": true,
                    "internalType": "address",
                    "name": "spender",
                    "type": "address"
                },
                {
                    "indexed": false,
                    "internalType": "uint256",
                    "name": "value",
                    "type": "uint256"
                }
            ],
            "name": "Approval",
            "type": "event"
        },
        {
            "anonymous": false,
            "inputs": [
                {
                    "indexed": true,
                    "internalType": "address",
                    "name": "from",
                    "type": "address"
                },
                {
                    "indexed": true,
                    "internalType": "address",
                    "name": "to",
                    "type": "address"
                },
                {
                    "indexed": false,
                    "internalType": "uint256",
                    "name": "value",
                    "type": "uint256"
                }
            ],
            "name": "Transfer",
            "type": "event"
        },
        {
            "inputs": [
                {
                    "internalType": "address",
                    "name": "owner",
                    "type": "address"
                },
                {
                    "internalType": "address",
                    "name": "spender",
                    "type": "address"
                }
            ],
            "name": "allowance",
            "outputs": [
                {
                    "internalType": "uint256",
                    "name": "",
                    "type": "uint256"
                }
            ],
            "stateMutability": "view",
            "type": "function"
        },
        {
            "inputs": [
                {
                    "internalType": "address",
                    "name": "spender",
                    "type": "address"
                },
                {
                    "internalType": "uint256",
                    "name": "amount",
                    "type": "uint256"
                }
            ],
            "name": "approve",
            "outputs": [
                {
                    "internalType": "bool",
                    "name": "",
                    "type": "bool"
                }
            ],
            "stateMutability": "nonpayable",
            "type": "function"
        },
        {
            "inputs": [
                {
                    "internalType": "address",
                    "name": "account",
                    "type": "address"
                }
            ],
            "name": "balanceOf",
            "outputs": [
                {
                    "internalType": "uint256",
                    "name": "",
                    "type": "uint256"
                }
            ],
            "stateMutability": "view",
            "type": "function"
        },
        {
            "inputs": [],
            "name": "decimals",
            "outputs": [
                {
                    "internalType": "uint8",
                    "name": "",
                    "type": "uint8"
                }
            ],
            "stateMutability": "view",
            "type": "function"
        },
        {
            "inputs": [
                {
                    "internalType": "address",
                    "name": "spender",
                    "type": "address"
                },
                {
                    "internalType": "uint256",
                    "name": "subtractedValue",
                    "type": "uint256"
                }
            ],
            "name": "decreaseAllowance",
            "outputs": [
                {
                    "internalType": "bool",
                    "name": "",
                    "type": "bool"
                }
            ],
            "stateMutability": "nonpayable",
            "type": "function"
        },
        {
            "inputs": [],
            "name": "getTrustedForwarder",
            "outputs": [
                {
                    "internalType": "address",
                    "name": "forwarder",
                    "type": "address"
                }
            ],
            "stateMutability": "view",
            "type": "function"
        },
        {
            "inputs": [
                {
                    "internalType": "address",
                    "name": "spender",
                    "type": "address"
                },
                {
                    "internalType": "uint256",
                    "name": "addedValue",
                    "type": "uint256"
                }
            ],
            "name": "increaseAllowance",
            "outputs": [
                {
                    "internalType": "bool",
                    "name": "",
                    "type": "bool"
                }
            ],
            "stateMutability": "nonpayable",
            "type": "function"
        },
        {
            "inputs": [
                {
                    "internalType": "address",
                    "name": "forwarder",
                    "type": "address"
                }
            ],
            "name": "isTrustedForwarder",
            "outputs": [
                {
                    "internalType": "bool",
                    "name": "",
                    "type": "bool"
                }
            ],
            "stateMutability": "view",
            "type": "function"
        },
        {
            "inputs": [],
            "name": "name",
            "outputs": [
                {
                    "internalType": "string",
                    "name": "",
                    "type": "string"
                }
            ],
            "stateMutability": "view",
            "type": "function"
        },
        {
            "inputs": [],
            "name": "symbol",
            "outputs": [
                {
                    "internalType": "string",
                    "name": "",
                    "type": "string"
                }
            ],
            "stateMutability": "view",
            "type": "function"
        },
        {
            "inputs": [],
            "name": "totalSupply",
            "outputs": [
                {
                    "internalType": "uint256",
                    "name": "",
                    "type": "uint256"
                }
            ],
            "stateMutability": "view",
            "type": "function"
        },
        {
            "inputs": [
                {
                    "internalType": "address",
                    "name": "to",
                    "type": "address"
                },
                {
                    "internalType": "uint256",
                    "name": "amount",
                    "type": "uint256"
                }
            ],
            "name": "transfer",
            "outputs": [
                {
                    "internalType": "bool",
                    "name": "",
                    "type": "bool"
                }
            ],
            "stateMutability": "nonpayable",
            "type": "function"
        },
        {
            "inputs": [
                {
                    "internalType": "address",
                    "name": "from",
                    "type": "address"
                },
                {
                    "internalType": "address",
                    "name": "to",
                    "type": "address"
                },
                {
                    "internalType": "uint256",
                    "name": "amount",
                    "type": "uint256"
                }
            ],
            "name": "transferFrom",
            "outputs": [
                {
                    "internalType": "bool",
                    "name": "",
                    "type": "bool"
                }
            ],
            "stateMutability": "nonpayable",
            "type": "function"
        }
    ],
    "bytecode": "0x60806040523480156200001157600080fd5b5060405162001b2b38038062001b2b8339818101604052810190620000379190620003a7565b828281600490805190602001906200005192919062000262565b5080600590805190602001906200006a92919062000262565b5050506200007e81620000a660201b60201c565b6200009d336c01431e0fae6d7217caa0000000620000e960201b60201c565b5050506200075a565b806000806101000a81548173ffffffffffffffffffffffffffffffffffffffff021916908373ffffffffffffffffffffffffffffffffffffffff16021790555050565b600073ffffffffffffffffffffffffffffffffffffffff168273ffffffffffffffffffffffffffffffffffffffff1614156200015c576040517f08c379a0000000000000000000000000000000000000000000000000000000008152600401620001539062000479565b60405180910390fd5b62000170600083836200025860201b60201c565b806003600082825462000184919062000528565b9250508190555080600160008473ffffffffffffffffffffffffffffffffffffffff1673ffffffffffffffffffffffffffffffffffffffff168152602001908152602001600020600082825401925050819055508173ffffffffffffffffffffffffffffffffffffffff16600073ffffffffffffffffffffffffffffffffffffffff167fddf252ad1be2c89b69c2b068fc378daa952ba7f163c4a11628f55a4df523b3ef836040516200023891906200049b565b60405180910390a362000254600083836200025d60201b60201c565b5050565b505050565b505050565b8280546200027090620005f9565b90600052602060002090601f016020900481019282620002945760008555620002e0565b82601f10620002af57805160ff1916838001178555620002e0565b82800160010185558215620002e0579182015b82811115620002df578251825591602001919060010190620002c2565b5b509050620002ef9190620002f3565b5090565b5b808211156200030e576000816000905550600101620002f4565b5090565b6000620003296200032384620004e1565b620004b8565b905082815260208101848484011115620003485762000347620006f7565b5b62000355848285620005c3565b509392505050565b6000815190506200036e8162000740565b92915050565b600082601f8301126200038c576200038b620006f2565b5b81516200039e84826020860162000312565b91505092915050565b600080600060608486031215620003c357620003c262000701565b5b600084015167ffffffffffffffff811115620003e457620003e3620006fc565b5b620003f28682870162000374565b935050602084015167ffffffffffffffff811115620004165762000415620006fc565b5b620004248682870162000374565b925050604062000437868287016200035d565b9150509250925092565b600062000450601f8362000517565b91506200045d8262000717565b602082019050919050565b6200047381620005b9565b82525050565b60006020820190508181036000830152620004948162000441565b9050919050565b6000602082019050620004b2600083018462000468565b92915050565b6000620004c4620004d7565b9050620004d282826200062f565b919050565b6000604051905090565b600067ffffffffffffffff821115620004ff57620004fe620006c3565b5b6200050a8262000706565b9050602081019050919050565b600082825260208201905092915050565b60006200053582620005b9565b91506200054283620005b9565b9250827fffffffffffffffffffffffffffffffffffffffffffffffffffffffffffffffff038211156200057a576200057962000665565b5b828201905092915050565b6000620005928262000599565b9050919050565b600073ffffffffffffffffffffffffffffffffffffffff82169050919050565b6000819050919050565b60005b83811015620005e3578082015181840152602081019050620005c6565b83811115620005f3576000848401525b50505050565b600060028204905060018216806200061257607f821691505b6020821081141562000629576200062862000694565b5b50919050565b6200063a8262000706565b810181811067ffffffffffffffff821117156200065c576200065b620006c3565b5b80604052505050565b7f4e487b7100000000000000000000000000000000000000000000000000000000600052601160045260246000fd5b7f4e487b7100000000000000000000000000000000000000000000000000000000600052602260045260246000fd5b7f4e487b7100000000000000000000000000000000000000000000000000000000600052604160045260246000fd5b600080fd5b600080fd5b600080fd5b600080fd5b6000601f19601f8301169050919050565b7f45524332303a206d696e7420746f20746865207a65726f206164647265737300600082015250565b6200074b8162000585565b81146200075757600080fd5b50565b6113c1806200076a6000396000f3fe608060405234801561001057600080fd5b50600436106100cf5760003560e01c8063572b6c051161008c578063a457c2d711610066578063a457c2d71461023c578063a9059cbb1461026c578063ce1b815f1461029c578063dd62ed3e146102ba576100cf565b8063572b6c05146101be57806370a08231146101ee57806395d89b411461021e576100cf565b806306fdde03146100d4578063095ea7b3146100f257806318160ddd1461012257806323b872dd14610140578063313ce56714610170578063395093511461018e575b600080fd5b6100dc6102ea565b6040516100e99190610e82565b60405180910390f35b61010c60048036038101906101079190610ca2565b61037c565b6040516101199190610e67565b60405180910390f35b61012a61039f565b6040516101379190610f84565b60405180910390f35b61015a60048036038101906101559190610c4f565b6103a9565b6040516101679190610e67565b60405180910390f35b6101786103d8565b6040516101859190610f9f565b60405180910390f35b6101a860048036038101906101a39190610ca2565b6103e1565b6040516101b59190610e67565b60405180910390f35b6101d860048036038101906101d39190610be2565b610418565b6040516101e59190610e67565b60405180910390f35b61020860048036038101906102039190610be2565b610471565b6040516102159190610f84565b60405180910390f35b6102266104ba565b6040516102339190610e82565b60405180910390f35b61025660048036038101906102519190610ca2565b61054c565b6040516102639190610e67565b60405180910390f35b61028660048036038101906102819190610ca2565b6105c3565b6040516102939190610e67565b60405180910390f35b6102a46105e6565b6040516102b19190610e4c565b60405180910390f35b6102d460048036038101906102cf9190610c0f565b61060f565b6040516102e19190610f84565b60405180910390f35b6060600480546102f9906110b4565b80601f0160208091040260200160405190810160405280929190818152602001828054610325906110b4565b80156103725780601f1061034757610100808354040283529160200191610372565b820191906000526020600020905b81548152906001019060200180831161035557829003601f168201915b5050505050905090565b600080610387610696565b90506103948185856106a5565b600191505092915050565b6000600354905090565b6000806103b4610696565b90506103c1858285610870565b6103cc8585856108fc565b60019150509392505050565b60006012905090565b6000806103ec610696565b905061040d8185856103fe858961060f565b6104089190610fd6565b6106a5565b600191505092915050565b60008060009054906101000a900473ffffffffffffffffffffffffffffffffffffffff1673ffffffffffffffffffffffffffffffffffffffff168273ffffffffffffffffffffffffffffffffffffffff16149050919050565b6000600160008373ffffffffffffffffffffffffffffffffffffffff1673ffffffffffffffffffffffffffffffffffffffff168152602001908152602001600020549050919050565b6060600580546104c9906110b4565b80601f01602080910402602001604051908101604052809291908181526020018280546104f5906110b4565b80156105425780601f1061051757610100808354040283529160200191610542565b820191906000526020600020905b81548152906001019060200180831161052557829003601f168201915b5050505050905090565b600080610557610696565b90506000610565828661060f565b9050838110156105aa576040517f08c379a00000000000000000000000000000000000000000000000000000000081526004016105a190610f64565b60405180910390fd5b6105b782868684036106a5565b60019250505092915050565b6000806105ce610696565b90506105db8185856108fc565b600191505092915050565b60008060009054906101000a900473ffffffffffffffffffffffffffffffffffffffff16905090565b6000600260008473ffffffffffffffffffffffffffffffffffffffff1673ffffffffffffffffffffffffffffffffffffffff16815260200190815260200160002060008373ffffffffffffffffffffffffffffffffffffffff1673ffffffffffffffffffffffffffffffffffffffff16815260200190815260200160002054905092915050565b60006106a0610b77565b905090565b600073ffffffffffffffffffffffffffffffffffffffff168373ffffffffffffffffffffffffffffffffffffffff161415610715576040517f08c379a000000000000000000000000000000000000000000000000000000000815260040161070c90610f44565b60405180910390fd5b600073ffffffffffffffffffffffffffffffffffffffff168273ffffffffffffffffffffffffffffffffffffffff161415610785576040517f08c379a000000000000000000000000000000000000000000000000000000000815260040161077c90610ec4565b60405180910390fd5b80600260008573ffffffffffffffffffffffffffffffffffffffff1673ffffffffffffffffffffffffffffffffffffffff16815260200190815260200160002060008473ffffffffffffffffffffffffffffffffffffffff1673ffffffffffffffffffffffffffffffffffffffff168152602001908152602001600020819055508173ffffffffffffffffffffffffffffffffffffffff168373ffffffffffffffffffffffffffffffffffffffff167f8c5be1e5ebec7d5bd14f71427d1e84f3dd0314c0f7b2291e5b200ac8c7c3b925836040516108639190610f84565b60405180910390a3505050565b600061087c848461060f565b90507fffffffffffffffffffffffffffffffffffffffffffffffffffffffffffffffff81146108f657818110156108e8576040517f08c379a00000000000000000000000000000000000000000000000000000000081526004016108df90610ee4565b60405180910390fd5b6108f584848484036106a5565b5b50505050565b600073ffffffffffffffffffffffffffffffffffffffff168373ffffffffffffffffffffffffffffffffffffffff16141561096c576040517f08c379a000000000000000000000000000000000000000000000000000000000815260040161096390610f24565b60405180910390fd5b600073ffffffffffffffffffffffffffffffffffffffff168273ffffffffffffffffffffffffffffffffffffffff1614156109dc576040517f08c379a00000000000000000000000000000000000000000000000000000000081526004016109d390610ea4565b60405180910390fd5b6109e7838383610bae565b6000600160008573ffffffffffffffffffffffffffffffffffffffff1673ffffffffffffffffffffffffffffffffffffffff16815260200190815260200160002054905081811015610a6e576040517f08c379a0000000000000000000000000000000000000000000000000000000008152600401610a6590610f04565b60405180910390fd5b818103600160008673ffffffffffffffffffffffffffffffffffffffff1673ffffffffffffffffffffffffffffffffffffffff1681526020019081526020016000208190555081600160008573ffffffffffffffffffffffffffffffffffffffff1673ffffffffffffffffffffffffffffffffffffffff168152602001908152602001600020600082825401925050819055508273ffffffffffffffffffffffffffffffffffffffff168473ffffffffffffffffffffffffffffffffffffffff167fddf252ad1be2c89b69c2b068fc378daa952ba7f163c4a11628f55a4df523b3ef84604051610b5e9190610f84565b60405180910390a3610b71848484610bb3565b50505050565b60006014600036905010158015610b935750610b9233610418565b5b15610ba757601436033560601c9050610bab565b3390505b90565b505050565b505050565b600081359050610bc78161135d565b92915050565b600081359050610bdc81611374565b92915050565b600060208284031215610bf857610bf7611144565b5b6000610c0684828501610bb8565b91505092915050565b60008060408385031215610c2657610c25611144565b5b6000610c3485828601610bb8565b9250506020610c4585828601610bb8565b9150509250929050565b600080600060608486031215610c6857610c67611144565b5b6000610c7686828701610bb8565b9350506020610c8786828701610bb8565b9250506040610c9886828701610bcd565b9150509250925092565b60008060408385031215610cb957610cb8611144565b5b6000610cc785828601610bb8565b9250506020610cd885828601610bcd565b9150509250929050565b610ceb8161102c565b82525050565b610cfa8161103e565b82525050565b6000610d0b82610fba565b610d158185610fc5565b9350610d25818560208601611081565b610d2e81611149565b840191505092915050565b6000610d46602383610fc5565b9150610d518261115a565b604082019050919050565b6000610d69602283610fc5565b9150610d74826111a9565b604082019050919050565b6000610d8c601d83610fc5565b9150610d97826111f8565b602082019050919050565b6000610daf602683610fc5565b9150610dba82611221565b604082019050919050565b6000610dd2602583610fc5565b9150610ddd82611270565b604082019050919050565b6000610df5602483610fc5565b9150610e00826112bf565b604082019050919050565b6000610e18602583610fc5565b9150610e238261130e565b604082019050919050565b610e378161106a565b82525050565b610e4681611074565b82525050565b6000602082019050610e616000830184610ce2565b92915050565b6000602082019050610e7c6000830184610cf1565b92915050565b60006020820190508181036000830152610e9c8184610d00565b905092915050565b60006020820190508181036000830152610ebd81610d39565b9050919050565b60006020820190508181036000830152610edd81610d5c565b9050919050565b60006020820190508181036000830152610efd81610d7f565b9050919050565b60006020820190508181036000830152610f1d81610da2565b9050919050565b60006020820190508181036000830152610f3d81610dc5565b9050919050565b60006020820190508181036000830152610f5d81610de8565b9050919050565b60006020820190508181036000830152610f7d81610e0b565b9050919050565b6000602082019050610f996000830184610e2e565b92915050565b6000602082019050610fb46000830184610e3d565b92915050565b600081519050919050565b600082825260208201905092915050565b6000610fe18261106a565b9150610fec8361106a565b9250827fffffffffffffffffffffffffffffffffffffffffffffffffffffffffffffffff03821115611021576110206110e6565b5b828201905092915050565b60006110378261104a565b9050919050565b60008115159050919050565b600073ffffffffffffffffffffffffffffffffffffffff82169050919050565b6000819050919050565b600060ff82169050919050565b60005b8381101561109f578082015181840152602081019050611084565b838111156110ae576000848401525b50505050565b600060028204905060018216806110cc57607f821691505b602082108114156110e0576110df611115565b5b50919050565b7f4e487b7100000000000000000000000000000000000000000000000000000000600052601160045260246000fd5b7f4e487b7100000000000000000000000000000000000000000000000000000000600052602260045260246000fd5b600080fd5b6000601f19601f8301169050919050565b7f45524332303a207472616e7366657220746f20746865207a65726f206164647260008201527f6573730000000000000000000000000000000000000000000000000000000000602082015250565b7f45524332303a20617070726f766520746f20746865207a65726f20616464726560008201527f7373000000000000000000000000000000000000000000000000000000000000602082015250565b7f45524332303a20696e73756666696369656e7420616c6c6f77616e6365000000600082015250565b7f45524332303a207472616e7366657220616d6f756e742065786365656473206260008201527f616c616e63650000000000000000000000000000000000000000000000000000602082015250565b7f45524332303a207472616e736665722066726f6d20746865207a65726f20616460008201527f6472657373000000000000000000000000000000000000000000000000000000602082015250565b7f45524332303a20617070726f76652066726f6d20746865207a65726f2061646460008201527f7265737300000000000000000000000000000000000000000000000000000000602082015250565b7f45524332303a2064656372656173656420616c6c6f77616e63652062656c6f7760008201527f207a65726f000000000000000000000000000000000000000000000000000000602082015250565b6113668161102c565b811461137157600080fd5b50565b61137d8161106a565b811461138857600080fd5b5056fea26469706673582212206d6791de545cc9557ff80c41d48b3b755644545b7ea7e8b00decb740bc3d242b64736f6c63430008070033",
    "linkReferences": {},
    "deployedLinkReferences": {}
}