{
    "_format": "hh-sol-artifact-1",
    "contractName": "Forwarder",
    "sourceName": "contracts/Forwarder.sol",
    "abi": [
        {
            "inputs": [],
            "stateMutability": "nonpayable",
            "type": "constructor"
        },
        {
            "anonymous": false,
            "inputs": [
                {
                    "indexed": true,
                    "internalType": "bytes32",
                    "name": "domainSeparator",
                    "type": "bytes32"
                },
                {
                    "indexed": false,
                    "internalType": "bytes",
                    "name": "domainValue",
                    "type": "bytes"
                }
            ],
            "name": "DomainRegistered",
            "type": "event"
        },
        {
            "anonymous": false,
            "inputs": [
                {
                    "indexed": true,
                    "internalType": "bytes32",
                    "name": "typeHash",
                    "type": "bytes32"
                },
                {
                    "indexed": false,
                    "internalType": "string",
                    "name": "typeStr",
                    "type": "string"
                }
            ],
            "name": "RequestTypeRegistered",
            "type": "event"
        },
        {
            "inputs": [],
            "name": "EIP712_DOMAIN_TYPE",
            "outputs": [
                {
                    "internalType": "string",
                    "name": "",
                    "type": "string"
                }
            ],
            "stateMutability": "view",
            "type": "function"
        },
        {
            "inputs": [],
            "name": "GENERIC_PARAMS",
            "outputs": [
                {
                    "internalType": "string",
                    "name": "",
                    "type": "string"
                }
            ],
            "stateMutability": "view",
            "type": "function"
        },
        {
            "inputs": [
                {
                    "components": [
                        {
                            "internalType": "address",
                            "name": "from",
                            "type": "address"
                        },
                        {
                            "internalType": "address",
                            "name": "to",
                            "type": "address"
                        },
                        {
                            "internalType": "uint256",
                            "name": "value",
                            "type": "uint256"
                        },
                        {
                            "internalType": "uint256",
                            "name": "gas",
                            "type": "uint256"
                        },
                        {
                            "internalType": "uint256",
                            "name": "nonce",
                            "type": "uint256"
                        },
                        {
                            "internalType": "bytes",
                            "name": "data",
                            "type": "bytes"
                        },
                        {
                            "internalType": "uint256",
                            "name": "validUntilTime",
                            "type": "uint256"
                        }
                    ],
                    "internalType": "struct IForwarder.ForwardRequest",
                    "name": "req",
                    "type": "tuple"
                },
                {
                    "internalType": "bytes32",
                    "name": "requestTypeHash",
                    "type": "bytes32"
                },
                {
                    "internalType": "bytes",
                    "name": "suffixData",
                    "type": "bytes"
                }
            ],
            "name": "_getEncoded",
            "outputs": [
                {
                    "internalType": "bytes",
                    "name": "",
                    "type": "bytes"
                }
            ],
            "stateMutability": "pure",
            "type": "function"
        },
        {
            "inputs": [
                {
                    "internalType": "bytes32",
                    "name": "",
                    "type": "bytes32"
                }
            ],
            "name": "domains",
            "outputs": [
                {
                    "internalType": "bool",
                    "name": "",
                    "type": "bool"
                }
            ],
            "stateMutability": "view",
            "type": "function"
        },
        {
            "inputs": [
                {
                    "components": [
                        {
                            "internalType": "address",
                            "name": "from",
                            "type": "address"
                        },
                        {
                            "internalType": "address",
                            "name": "to",
                            "type": "address"
                        },
                        {
                            "internalType": "uint256",
                            "name": "value",
                            "type": "uint256"
                        },
                        {
                            "internalType": "uint256",
                            "name": "gas",
                            "type": "uint256"
                        },
                        {
                            "internalType": "uint256",
                            "name": "nonce",
                            "type": "uint256"
                        },
                        {
                            "internalType": "bytes",
                            "name": "data",
                            "type": "bytes"
                        },
                        {
                            "internalType": "uint256",
                            "name": "validUntilTime",
                            "type": "uint256"
                        }
                    ],
                    "internalType": "struct IForwarder.ForwardRequest",
                    "name": "req",
                    "type": "tuple"
                },
                {
                    "internalType": "bytes32",
                    "name": "domainSeparator",
                    "type": "bytes32"
                },
                {
                    "internalType": "bytes32",
                    "name": "requestTypeHash",
                    "type": "bytes32"
                },
                {
                    "internalType": "bytes",
                    "name": "suffixData",
                    "type": "bytes"
                },
                {
                    "internalType": "bytes",
                    "name": "sig",
                    "type": "bytes"
                }
            ],
            "name": "execute",
            "outputs": [
                {
                    "internalType": "bool",
                    "name": "success",
                    "type": "bool"
                },
                {
                    "internalType": "bytes",
                    "name": "ret",
                    "type": "bytes"
                }
            ],
            "stateMutability": "payable",
            "type": "function"
        },
        {
            "inputs": [
                {
                    "internalType": "address",
                    "name": "from",
                    "type": "address"
                }
            ],
            "name": "getNonce",
            "outputs": [
                {
                    "internalType": "uint256",
                    "name": "",
                    "type": "uint256"
                }
            ],
            "stateMutability": "view",
            "type": "function"
        },
        {
            "inputs": [
                {
                    "internalType": "string",
                    "name": "name",
                    "type": "string"
                },
                {
                    "internalType": "string",
                    "name": "version",
                    "type": "string"
                }
            ],
            "name": "registerDomainSeparator",
            "outputs": [],
            "stateMutability": "nonpayable",
            "type": "function"
        },
        {
            "inputs": [
                {
                    "internalType": "string",
                    "name": "typeName",
                    "type": "string"
                },
                {
                    "internalType": "string",
                    "name": "typeSuffix",
                    "type": "string"
                }
            ],
            "name": "registerRequestType",
            "outputs": [],
            "stateMutability": "nonpayable",
            "type": "function"
        },
        {
            "inputs": [
                {
                    "internalType": "bytes4",
                    "name": "interfaceId",
                    "type": "bytes4"
                }
            ],
            "name": "supportsInterface",
            "outputs": [
                {
                    "internalType": "bool",
                    "name": "",
                    "type": "bool"
                }
            ],
            "stateMutability": "view",
            "type": "function"
        },
        {
            "inputs": [
                {
                    "internalType": "bytes32",
                    "name": "",
                    "type": "bytes32"
                }
            ],
            "name": "typeHashes",
            "outputs": [
                {
                    "internalType": "bool",
                    "name": "",
                    "type": "bool"
                }
            ],
            "stateMutability": "view",
            "type": "function"
        },
        {
            "inputs": [
                {
                    "components": [
                        {
                            "internalType": "address",
                            "name": "from",
                            "type": "address"
                        },
                        {
                            "internalType": "address",
                            "name": "to",
                            "type": "address"
                        },
                        {
                            "internalType": "uint256",
                            "name": "value",
                            "type": "uint256"
                        },
                        {
                            "internalType": "uint256",
                            "name": "gas",
                            "type": "uint256"
                        },
                        {
                            "internalType": "uint256",
                            "name": "nonce",
                            "type": "uint256"
                        },
                        {
                            "internalType": "bytes",
                            "name": "data",
                            "type": "bytes"
                        },
                        {
                            "internalType": "uint256",
                            "name": "validUntilTime",
                            "type": "uint256"
                        }
                    ],
                    "internalType": "struct IForwarder.ForwardRequest",
                    "name": "req",
                    "type": "tuple"
                },
                {
                    "internalType": "bytes32",
                    "name": "domainSeparator",
                    "type": "bytes32"
                },
                {
                    "internalType": "bytes32",
                    "name": "requestTypeHash",
                    "type": "bytes32"
                },
                {
                    "internalType": "bytes",
                    "name": "suffixData",
                    "type": "bytes"
                },
                {
                    "internalType": "bytes",
                    "name": "sig",
                    "type": "bytes"
                }
            ],
            "name": "verify",
            "outputs": [],
            "stateMutability": "view",
            "type": "function"
        },
        {
            "stateMutability": "payable",
            "type": "receive"
        }
    ],
    "bytecode": "0x60806040523480156200001157600080fd5b5060006040518060a00160405280606181526020016200278760619139604051602001620000409190620001a4565b604051602081830303815290604052905062000062816200006960201b60201c565b50620002bb565b600081805190602001209050600160008083815260200190815260200160002060006101000a81548160ff021916908315150217905550807f64d6bce64323458c44643c51fe45113efc882082f7b7fd5f09f0d69d2eedb20283604051620000d29190620001d7565b60405180910390a25050565b6000620000eb82620001fb565b620000f7818562000206565b93506200010981856020860162000222565b620001148162000258565b840191505092915050565b60006200012c82620001fb565b62000138818562000217565b93506200014a81856020860162000222565b80840191505092915050565b600062000165600f8362000217565b9150620001728262000269565b600f82019050919050565b60006200018c60018362000217565b9150620001998262000292565b600182019050919050565b6000620001b18262000156565b9150620001bf82846200011f565b9150620001cc826200017d565b915081905092915050565b60006020820190508181036000830152620001f38184620000de565b905092915050565b600081519050919050565b600082825260208201905092915050565b600081905092915050565b60005b838110156200024257808201518184015260208101905062000225565b8381111562000252576000848401525b50505050565b6000601f19601f8301169050919050565b7f466f727761726452657175657374280000000000000000000000000000000000600082015250565b7f2900000000000000000000000000000000000000000000000000000000000000600082015250565b6124bc80620002cb6000396000f3fe6080604052600436106100a05760003560e01c8063ad9f99c711610064578063ad9f99c7146101b7578063c3f28abd146101e0578063c722f1771461020b578063d9210be514610248578063e024dc7f14610271578063e2b62f2d146102a2576100a7565b806301ffc9a7146100ac578063066a310c146100e957806321fe98df146101145780632d0335ab146101515780639c7b45921461018e576100a7565b366100a757005b600080fd5b3480156100b857600080fd5b506100d360048036038101906100ce91906113b2565b6102df565b6040516100e09190611aba565b60405180910390f35b3480156100f557600080fd5b506100fe610359565b60405161010b9190611bbf565b60405180910390f35b34801561012057600080fd5b5061013b60048036038101906101369190611385565b610375565b6040516101489190611aba565b60405180910390f35b34801561015d57600080fd5b5061017860048036038101906101739190611358565b610395565b6040516101859190611d51565b60405180910390f35b34801561019a57600080fd5b506101b560048036038101906101b091906113df565b6103de565b005b3480156101c357600080fd5b506101de60048036038101906101d99190611460565b6104d4565b005b3480156101ec57600080fd5b506101f56104f5565b6040516102029190611bbf565b60405180910390f35b34801561021757600080fd5b50610232600480360381019061022d9190611385565b610511565b60405161023f9190611aba565b60405180910390f35b34801561025457600080fd5b5061026f600480360381019061026a91906113df565b610531565b005b61028b60048036038101906102869190611460565b61069c565b604051610299929190611ad5565b60405180910390f35b3480156102ae57600080fd5b506102c960048036038101906102c49190611538565b610929565b6040516102d69190611b9d565b60405180910390f35b60007f25e23e64000000000000000000000000000000000000000000000000000000007bffffffffffffffffffffffffffffffffffffffffffffffffffffffff1916827bffffffffffffffffffffffffffffffffffffffffffffffffffffffff191614806103525750610351826109ec565b5b9050919050565b6040518060a00160405280606181526020016123d46061913981565b60006020528060005260406000206000915054906101000a900460ff1681565b6000600260008373ffffffffffffffffffffffffffffffffffffffff1673ffffffffffffffffffffffffffffffffffffffff168152602001908152602001600020549050919050565b60004690506000604051806080016040528060528152602001612435605291398051906020012086866040516104159291906119de565b6040518091039020858560405161042d9291906119de565b6040518091039020843060405160200161044b959493929190611b05565b6040516020818303038152906040529050600081805190602001209050600180600083815260200190815260200160002060006101000a81548160ff021916908315150217905550807f4bc68689cbe89a4a6333a3ab0a70093874da3e5bfb71e93102027f3f073687d8836040516104c39190611b9d565b60405180910390a250505050505050565b6104dd87610a56565b6104ec87878787878787610af0565b50505050505050565b6040518060800160405280605281526020016124356052913981565b60016020528060005260406000206000915054906101000a900460ff1681565b60005b84849050811015610647576000858583818110610554576105536120d9565b5b9050013560f81c60f81b90507f2800000000000000000000000000000000000000000000000000000000000000817effffffffffffffffffffffffffffffffffffffffffffffffffffffffffffff1916141580156105f457507f2900000000000000000000000000000000000000000000000000000000000000817effffffffffffffffffffffffffffffffffffffffffffffffffffffffffffff191614155b610633576040517f08c379a000000000000000000000000000000000000000000000000000000000815260040161062a90611d11565b60405180910390fd5b50808061063f90611fcb565b915050610534565b50600084846040518060a00160405280606181526020016123d460619139858560405160200161067b959493929190611a38565b604051602081830303815290604052905061069581610d05565b5050505050565b600060606106af89898989898989610af0565b6106b889610d78565b60008960c0013514806106ce5750428960c00135115b61070d576040517f08c379a000000000000000000000000000000000000000000000000000000000815260040161070490611cd1565b60405180910390fd5b6000808a604001351461072057619c4090505b60008a8060a001906107329190611d6c565b8c60000160208101906107459190611358565b604051602001610757939291906119f7565b6040516020818303038152906040529050818b606001356107789190611e1d565b6040603f5a6107879190611ea4565b6107919190611e73565b10156107d2576040517f08c379a00000000000000000000000000000000000000000000000000000000081526004016107c990611cb1565b60405180910390fd5b8a60200160208101906107e59190611358565b73ffffffffffffffffffffffffffffffffffffffff168b606001358c60400135836040516108139190611a21565b600060405180830381858888f193505050503d8060008114610851576040519150601f19603f3d011682016040523d82523d6000602084013e610856565b606091505b50809450819550505061089e6040518060400160405280602081526020017f6578656375746520726573756c743a20737563636573733a202573207265743a81525085610e26565b6108a783610ec2565b60008b60400135141580156108bc5750600047115b1561091b578a60000160208101906108d49190611358565b73ffffffffffffffffffffffffffffffffffffffff166108fc479081150290604051600060405180830381858888f19350505050158015610919573d6000803e3d6000fd5b505b505097509795505050505050565b60608385600001602081019061093f9190611358565b73ffffffffffffffffffffffffffffffffffffffff168660200160208101906109689190611358565b73ffffffffffffffffffffffffffffffffffffffff168760400135886060013589608001358a8060a0019061099d9190611d6c565b6040516109ab9291906119de565b60405180910390208b60c001358a8a6040516020016109d39a9998979695949392919061193d565b6040516020818303038152906040529050949350505050565b60007f01ffc9a7000000000000000000000000000000000000000000000000000000007bffffffffffffffffffffffffffffffffffffffffffffffffffffffff1916827bffffffffffffffffffffffffffffffffffffffffffffffffffffffff1916149050919050565b806080013560026000836000016020810190610a729190611358565b73ffffffffffffffffffffffffffffffffffffffff1673ffffffffffffffffffffffffffffffffffffffff1681526020019081526020016000205414610aed576040517f08c379a0000000000000000000000000000000000000000000000000000000008152600401610ae490611c91565b60405180910390fd5b50565b6001600087815260200190815260200160002060009054906101000a900460ff16610b50576040517f08c379a0000000000000000000000000000000000000000000000000000000008152600401610b4790611cf1565b60405180910390fd5b60008086815260200190815260200160002060009054906101000a900460ff16610baf576040517f08c379a0000000000000000000000000000000000000000000000000000000008152600401610ba690611d31565b60405180910390fd5b600086610bbe89888888610929565b80519060200120604051602001610bd6929190611a83565b604051602081830303815290604052805190602001209050600073ffffffffffffffffffffffffffffffffffffffff163273ffffffffffffffffffffffffffffffffffffffff161480610cbc5750876000016020810190610c379190611358565b73ffffffffffffffffffffffffffffffffffffffff16610ca484848080601f016020809104026020016040519081016040528093929190818152602001838380828437600081840152601f19601f8201169050808301925050505050505083610f5b90919063ffffffff16565b73ffffffffffffffffffffffffffffffffffffffff16145b610cfb576040517f08c379a0000000000000000000000000000000000000000000000000000000008152600401610cf290611c71565b60405180910390fd5b5050505050505050565b600081805190602001209050600160008083815260200190815260200160002060006101000a81548160ff021916908315150217905550807f64d6bce64323458c44643c51fe45113efc882082f7b7fd5f09f0d69d2eedb20283604051610d6c9190611bbf565b60405180910390a25050565b806080013560026000836000016020810190610d949190611358565b73ffffffffffffffffffffffffffffffffffffffff1673ffffffffffffffffffffffffffffffffffffffff1681526020019081526020016000206000815480929190610ddf90611fcb565b9190505514610e23576040517f08c379a0000000000000000000000000000000000000000000000000000000008152600401610e1a90611c91565b60405180910390fd5b50565b610ebe8282604051602401610e3c929190611be1565b6040516020818303038152906040527fc3b55635000000000000000000000000000000000000000000000000000000007bffffffffffffffffffffffffffffffffffffffffffffffffffffffff19166020820180517bffffffffffffffffffffffffffffffffffffffffffffffffffffffff8381831617835250505050610f82565b5050565b610f5881604051602401610ed69190611b9d565b6040516020818303038152906040527f0be77f56000000000000000000000000000000000000000000000000000000007bffffffffffffffffffffffffffffffffffffffffffffffffffffffff19166020820180517bffffffffffffffffffffffffffffffffffffffffffffffffffffffff8381831617835250505050610f82565b50565b6000806000610f6a8585610fab565b91509150610f7781610ffd565b819250505092915050565b60008151905060006a636f6e736f6c652e6c6f679050602083016000808483855afa5050505050565b600080604183511415610fed5760008060006020860151925060408601519150606086015160001a9050610fe18782858561116b565b94509450505050610ff6565b60006002915091505b9250929050565b60006004811115611011576110106120aa565b5b816004811115611024576110236120aa565b5b141561102f57611168565b60016004811115611043576110426120aa565b5b816004811115611056576110556120aa565b5b1415611097576040517f08c379a000000000000000000000000000000000000000000000000000000000815260040161108e90611c11565b60405180910390fd5b600260048111156110ab576110aa6120aa565b5b8160048111156110be576110bd6120aa565b5b14156110ff576040517f08c379a00000000000000000000000000000000000000000000000000000000081526004016110f690611c31565b60405180910390fd5b60036004811115611113576111126120aa565b5b816004811115611126576111256120aa565b5b1415611167576040517f08c379a000000000000000000000000000000000000000000000000000000000815260040161115e90611c51565b60405180910390fd5b5b50565b6000807f7fffffffffffffffffffffffffffffff5d576e7357a4501ddfe92f46681b20a08360001c11156111a6576000600391509150611245565b6000600187878787604051600081526020016040526040516111cb9493929190611b58565b6020604051602081039080840390855afa1580156111ed573d6000803e3d6000fd5b505050602060405103519050600073ffffffffffffffffffffffffffffffffffffffff168173ffffffffffffffffffffffffffffffffffffffff16141561123c57600060019250925050611245565b80600092509250505b94509492505050565b60008135905061125d8161238e565b92915050565b600081359050611272816123a5565b92915050565b600081359050611287816123bc565b92915050565b60008083601f8401126112a3576112a261210d565b5b8235905067ffffffffffffffff8111156112c0576112bf612108565b5b6020830191508360018202830111156112dc576112db612121565b5b9250929050565b60008083601f8401126112f9576112f861210d565b5b8235905067ffffffffffffffff81111561131657611315612108565b5b60208301915083600182028301111561133257611331612121565b5b9250929050565b600060e0828403121561134f5761134e612117565b5b81905092915050565b60006020828403121561136e5761136d612130565b5b600061137c8482850161124e565b91505092915050565b60006020828403121561139b5761139a612130565b5b60006113a984828501611263565b91505092915050565b6000602082840312156113c8576113c7612130565b5b60006113d684828501611278565b91505092915050565b600080600080604085870312156113f9576113f8612130565b5b600085013567ffffffffffffffff8111156114175761141661212b565b5b611423878288016112e3565b9450945050602085013567ffffffffffffffff8111156114465761144561212b565b5b611452878288016112e3565b925092505092959194509250565b600080600080600080600060a0888a03121561147f5761147e612130565b5b600088013567ffffffffffffffff81111561149d5761149c61212b565b5b6114a98a828b01611339565b97505060206114ba8a828b01611263565b96505060406114cb8a828b01611263565b955050606088013567ffffffffffffffff8111156114ec576114eb61212b565b5b6114f88a828b0161128d565b9450945050608088013567ffffffffffffffff81111561151b5761151a61212b565b5b6115278a828b0161128d565b925092505092959891949750929550565b6000806000806060858703121561155257611551612130565b5b600085013567ffffffffffffffff8111156115705761156f61212b565b5b61157c87828801611339565b945050602061158d87828801611263565b935050604085013567ffffffffffffffff8111156115ae576115ad61212b565b5b6115ba8782880161128d565b925092505092959194509250565b6115d181611efe565b82525050565b6115e86115e382611efe565b612014565b82525050565b6115f781611f10565b82525050565b61160681611f1c565b82525050565b61161d61161882611f1c565b612026565b82525050565b600061162f8385611df6565b935061163c838584611f89565b82840190509392505050565b600061165382611dcf565b61165d8185611de5565b935061166d818560208601611f98565b61167681612135565b840191505092915050565b600061168c82611dcf565b6116968185611df6565b93506116a6818560208601611f98565b80840191505092915050565b60006116be8385611e12565b93506116cb838584611f89565b82840190509392505050565b60006116e282611dda565b6116ec8185611e01565b93506116fc818560208601611f98565b61170581612135565b840191505092915050565b600061171b82611dda565b6117258185611e12565b9350611735818560208601611f98565b80840191505092915050565b600061174e601883611e01565b915061175982612153565b602082019050919050565b6000611771601f83611e01565b915061177c8261217c565b602082019050919050565b6000611794600283611e12565b915061179f826121a5565b600282019050919050565b60006117b7600183611e12565b91506117c2826121ce565b600182019050919050565b60006117da600183611e12565b91506117e5826121f7565b600182019050919050565b60006117fd602283611e01565b915061180882612220565b604082019050919050565b6000611820601783611e01565b915061182b8261226f565b602082019050919050565b6000611843601383611e01565b915061184e82612298565b602082019050919050565b6000611866601583611e01565b9150611871826122c1565b602082019050919050565b6000611889601483611e01565b9150611894826122ea565b602082019050919050565b60006118ac601d83611e01565b91506118b782612313565b602082019050919050565b60006118cf601583611e01565b91506118da8261233c565b602082019050919050565b60006118f2601a83611e01565b91506118fd82612365565b602082019050919050565b61191181611f72565b82525050565b61192861192382611f72565b612042565b82525050565b61193781611f7c565b82525050565b6000611949828d61160c565b602082019150611959828c611917565b602082019150611969828b611917565b602082019150611979828a611917565b6020820191506119898289611917565b6020820191506119998288611917565b6020820191506119a9828761160c565b6020820191506119b98286611917565b6020820191506119ca828486611623565b91508190509b9a5050505050505050505050565b60006119eb828486611623565b91508190509392505050565b6000611a04828587611623565b9150611a1082846115d7565b601482019150819050949350505050565b6000611a2d8284611681565b915081905092915050565b6000611a458287896116b2565b9150611a50826117cd565b9150611a5c8286611710565b9150611a67826117aa565b9150611a748284866116b2565b91508190509695505050505050565b6000611a8e82611787565b9150611a9a828561160c565b602082019150611aaa828461160c565b6020820191508190509392505050565b6000602082019050611acf60008301846115ee565b92915050565b6000604082019050611aea60008301856115ee565b8181036020830152611afc8184611648565b90509392505050565b600060a082019050611b1a60008301886115fd565b611b2760208301876115fd565b611b3460408301866115fd565b611b416060830185611908565b611b4e60808301846115c8565b9695505050505050565b6000608082019050611b6d60008301876115fd565b611b7a602083018661192e565b611b8760408301856115fd565b611b9460608301846115fd565b95945050505050565b60006020820190508181036000830152611bb78184611648565b905092915050565b60006020820190508181036000830152611bd981846116d7565b905092915050565b60006040820190508181036000830152611bfb81856116d7565b9050611c0a60208301846115ee565b9392505050565b60006020820190508181036000830152611c2a81611741565b9050919050565b60006020820190508181036000830152611c4a81611764565b9050919050565b60006020820190508181036000830152611c6a816117f0565b9050919050565b60006020820190508181036000830152611c8a81611813565b9050919050565b60006020820190508181036000830152611caa81611836565b9050919050565b60006020820190508181036000830152611cca81611859565b9050919050565b60006020820190508181036000830152611cea8161187c565b9050919050565b60006020820190508181036000830152611d0a8161189f565b9050919050565b60006020820190508181036000830152611d2a816118c2565b9050919050565b60006020820190508181036000830152611d4a816118e5565b9050919050565b6000602082019050611d666000830184611908565b92915050565b60008083356001602003843603038112611d8957611d8861211c565b5b80840192508235915067ffffffffffffffff821115611dab57611daa612112565b5b602083019250600182023603831315611dc757611dc6612126565b5b509250929050565b600081519050919050565b600081519050919050565b600082825260208201905092915050565b600081905092915050565b600082825260208201905092915050565b600081905092915050565b6000611e2882611f72565b9150611e3383611f72565b9250827fffffffffffffffffffffffffffffffffffffffffffffffffffffffffffffffff03821115611e6857611e6761204c565b5b828201905092915050565b6000611e7e82611f72565b9150611e8983611f72565b925082611e9957611e9861207b565b5b828204905092915050565b6000611eaf82611f72565b9150611eba83611f72565b9250817fffffffffffffffffffffffffffffffffffffffffffffffffffffffffffffffff0483118215151615611ef357611ef261204c565b5b828202905092915050565b6000611f0982611f52565b9050919050565b60008115159050919050565b6000819050919050565b60007fffffffff0000000000000000000000000000000000000000000000000000000082169050919050565b600073ffffffffffffffffffffffffffffffffffffffff82169050919050565b6000819050919050565b600060ff82169050919050565b82818337600083830152505050565b60005b83811015611fb6578082015181840152602081019050611f9b565b83811115611fc5576000848401525b50505050565b6000611fd682611f72565b91507fffffffffffffffffffffffffffffffffffffffffffffffffffffffffffffffff8214156120095761200861204c565b5b600182019050919050565b600061201f82612030565b9050919050565b6000819050919050565b600061203b82612146565b9050919050565b6000819050919050565b7f4e487b7100000000000000000000000000000000000000000000000000000000600052601160045260246000fd5b7f4e487b7100000000000000000000000000000000000000000000000000000000600052601260045260246000fd5b7f4e487b7100000000000000000000000000000000000000000000000000000000600052602160045260246000fd5b7f4e487b7100000000000000000000000000000000000000000000000000000000600052603260045260246000fd5b600080fd5b600080fd5b600080fd5b600080fd5b600080fd5b600080fd5b600080fd5b600080fd5b600080fd5b6000601f19601f8301169050919050565b60008160601b9050919050565b7f45434453413a20696e76616c6964207369676e61747572650000000000000000600082015250565b7f45434453413a20696e76616c6964207369676e6174757265206c656e67746800600082015250565b7f1901000000000000000000000000000000000000000000000000000000000000600082015250565b7f2c00000000000000000000000000000000000000000000000000000000000000600082015250565b7f2800000000000000000000000000000000000000000000000000000000000000600082015250565b7f45434453413a20696e76616c6964207369676e6174757265202773272076616c60008201527f7565000000000000000000000000000000000000000000000000000000000000602082015250565b7f4657443a207369676e6174757265206d69736d61746368000000000000000000600082015250565b7f4657443a206e6f6e6365206d69736d6174636800000000000000000000000000600082015250565b7f4657443a20696e73756666696369656e74206761730000000000000000000000600082015250565b7f4657443a20726571756573742065787069726564000000000000000000000000600082015250565b7f4657443a20756e7265676973746572656420646f6d61696e207365702e000000600082015250565b7f4657443a20696e76616c696420747970656e616d650000000000000000000000600082015250565b7f4657443a20756e72656769737465726564207479706568617368000000000000600082015250565b61239781611efe565b81146123a257600080fd5b50565b6123ae81611f1c565b81146123b957600080fd5b50565b6123c581611f26565b81146123d057600080fd5b5056fe616464726573732066726f6d2c6164647265737320746f2c75696e743235362076616c75652c75696e74323536206761732c75696e74323536206e6f6e63652c627974657320646174612c75696e743235362076616c6964556e74696c54696d65454950373132446f6d61696e28737472696e67206e616d652c737472696e672076657273696f6e2c75696e7432353620636861696e49642c6164647265737320766572696679696e67436f6e747261637429a2646970667358221220364d161f117626dd2a34a0873fe53033019943ab8578d499b3a2d7681eb16d5464736f6c63430008070033616464726573732066726f6d2c6164647265737320746f2c75696e743235362076616c75652c75696e74323536206761732c75696e74323536206e6f6e63652c627974657320646174612c75696e743235362076616c6964556e74696c54696d65",
    "linkReferences": {},
    "deployedLinkReferences": {}
}