{
    "_format": "hh-sol-artifact-1",
    "contractName": "Forwarder",
    "sourceName": "contracts/Forwarder.sol",
    "abi": [
        {
            "inputs": [],
            "stateMutability": "nonpayable",
            "type": "constructor"
        },
        {
            "anonymous": false,
            "inputs": [
                {
                    "indexed": true,
                    "internalType": "bytes32",
                    "name": "domainSeparator",
                    "type": "bytes32"
                },
                {
                    "indexed": false,
                    "internalType": "bytes",
                    "name": "domainValue",
                    "type": "bytes"
                }
            ],
            "name": "DomainRegistered",
            "type": "event"
        },
        {
            "anonymous": false,
            "inputs": [
                {
                    "indexed": true,
                    "internalType": "bytes32",
                    "name": "typeHash",
                    "type": "bytes32"
                },
                {
                    "indexed": false,
                    "internalType": "string",
                    "name": "typeStr",
                    "type": "string"
                }
            ],
            "name": "RequestTypeRegistered",
            "type": "event"
        },
        {
            "inputs": [],
            "name": "EIP712_DOMAIN_TYPE",
            "outputs": [
                {
                    "internalType": "string",
                    "name": "",
                    "type": "string"
                }
            ],
            "stateMutability": "view",
            "type": "function"
        },
        {
            "inputs": [],
            "name": "GENERIC_PARAMS",
            "outputs": [
                {
                    "internalType": "string",
                    "name": "",
                    "type": "string"
                }
            ],
            "stateMutability": "view",
            "type": "function"
        },
        {
            "inputs": [
                {
                    "components": [
                        {
                            "internalType": "address",
                            "name": "from",
                            "type": "address"
                        },
                        {
                            "internalType": "address",
                            "name": "to",
                            "type": "address"
                        },
                        {
                            "internalType": "uint256",
                            "name": "value",
                            "type": "uint256"
                        },
                        {
                            "internalType": "uint256",
                            "name": "gas",
                            "type": "uint256"
                        },
                        {
                            "internalType": "uint256",
                            "name": "nonce",
                            "type": "uint256"
                        },
                        {
                            "internalType": "bytes",
                            "name": "data",
                            "type": "bytes"
                        },
                        {
                            "internalType": "uint256",
                            "name": "validUntilTime",
                            "type": "uint256"
                        }
                    ],
                    "internalType": "struct IForwarder.ForwardRequest",
                    "name": "req",
                    "type": "tuple"
                },
                {
                    "internalType": "bytes32",
                    "name": "requestTypeHash",
                    "type": "bytes32"
                },
                {
                    "internalType": "bytes",
                    "name": "suffixData",
                    "type": "bytes"
                }
            ],
            "name": "_getEncoded",
            "outputs": [
                {
                    "internalType": "bytes",
                    "name": "",
                    "type": "bytes"
                }
            ],
            "stateMutability": "pure",
            "type": "function"
        },
        {
            "inputs": [
                {
                    "internalType": "bytes32",
                    "name": "",
                    "type": "bytes32"
                }
            ],
            "name": "domains",
            "outputs": [
                {
                    "internalType": "bool",
                    "name": "",
                    "type": "bool"
                }
            ],
            "stateMutability": "view",
            "type": "function"
        },
        {
            "inputs": [
                {
                    "components": [
                        {
                            "internalType": "address",
                            "name": "from",
                            "type": "address"
                        },
                        {
                            "internalType": "address",
                            "name": "to",
                            "type": "address"
                        },
                        {
                            "internalType": "uint256",
                            "name": "value",
                            "type": "uint256"
                        },
                        {
                            "internalType": "uint256",
                            "name": "gas",
                            "type": "uint256"
                        },
                        {
                            "internalType": "uint256",
                            "name": "nonce",
                            "type": "uint256"
                        },
                        {
                            "internalType": "bytes",
                            "name": "data",
                            "type": "bytes"
                        },
                        {
                            "internalType": "uint256",
                            "name": "validUntilTime",
                            "type": "uint256"
                        }
                    ],
                    "internalType": "struct IForwarder.ForwardRequest",
                    "name": "req",
                    "type": "tuple"
                },
                {
                    "internalType": "bytes32",
                    "name": "domainSeparator",
                    "type": "bytes32"
                },
                {
                    "internalType": "bytes32",
                    "name": "requestTypeHash",
                    "type": "bytes32"
                },
                {
                    "internalType": "bytes",
                    "name": "suffixData",
                    "type": "bytes"
                },
                {
                    "internalType": "bytes",
                    "name": "sig",
                    "type": "bytes"
                }
            ],
            "name": "execute",
            "outputs": [
                {
                    "internalType": "bool",
                    "name": "success",
                    "type": "bool"
                },
                {
                    "internalType": "bytes",
                    "name": "ret",
                    "type": "bytes"
                }
            ],
            "stateMutability": "payable",
            "type": "function"
        },
        {
            "inputs": [
                {
                    "internalType": "address",
                    "name": "from",
                    "type": "address"
                }
            ],
            "name": "getNonce",
            "outputs": [
                {
                    "internalType": "uint256",
                    "name": "",
                    "type": "uint256"
                }
            ],
            "stateMutability": "view",
            "type": "function"
        },
        {
            "inputs": [
                {
                    "internalType": "string",
                    "name": "name",
                    "type": "string"
                },
                {
                    "internalType": "string",
                    "name": "version",
                    "type": "string"
                }
            ],
            "name": "registerDomainSeparator",
            "outputs": [],
            "stateMutability": "nonpayable",
            "type": "function"
        },
        {
            "inputs": [
                {
                    "internalType": "string",
                    "name": "typeName",
                    "type": "string"
                },
                {
                    "internalType": "string",
                    "name": "typeSuffix",
                    "type": "string"
                }
            ],
            "name": "registerRequestType",
            "outputs": [],
            "stateMutability": "nonpayable",
            "type": "function"
        },
        {
            "inputs": [
                {
                    "internalType": "bytes4",
                    "name": "interfaceId",
                    "type": "bytes4"
                }
            ],
            "name": "supportsInterface",
            "outputs": [
                {
                    "internalType": "bool",
                    "name": "",
                    "type": "bool"
                }
            ],
            "stateMutability": "view",
            "type": "function"
        },
        {
            "inputs": [
                {
                    "internalType": "bytes32",
                    "name": "",
                    "type": "bytes32"
                }
            ],
            "name": "typeHashes",
            "outputs": [
                {
                    "internalType": "bool",
                    "name": "",
                    "type": "bool"
                }
            ],
            "stateMutability": "view",
            "type": "function"
        },
        {
            "inputs": [
                {
                    "components": [
                        {
                            "internalType": "address",
                            "name": "from",
                            "type": "address"
                        },
                        {
                            "internalType": "address",
                            "name": "to",
                            "type": "address"
                        },
                        {
                            "internalType": "uint256",
                            "name": "value",
                            "type": "uint256"
                        },
                        {
                            "internalType": "uint256",
                            "name": "gas",
                            "type": "uint256"
                        },
                        {
                            "internalType": "uint256",
                            "name": "nonce",
                            "type": "uint256"
                        },
                        {
                            "internalType": "bytes",
                            "name": "data",
                            "type": "bytes"
                        },
                        {
                            "internalType": "uint256",
                            "name": "validUntilTime",
                            "type": "uint256"
                        }
                    ],
                    "internalType": "struct IForwarder.ForwardRequest",
                    "name": "req",
                    "type": "tuple"
                },
                {
                    "internalType": "bytes32",
                    "name": "domainSeparator",
                    "type": "bytes32"
                },
                {
                    "internalType": "bytes32",
                    "name": "requestTypeHash",
                    "type": "bytes32"
                },
                {
                    "internalType": "bytes",
                    "name": "suffixData",
                    "type": "bytes"
                },
                {
                    "internalType": "bytes",
                    "name": "sig",
                    "type": "bytes"
                }
            ],
            "name": "verify",
            "outputs": [],
            "stateMutability": "view",
            "type": "function"
        },
        {
            "stateMutability": "payable",
            "type": "receive"
        }
    ],
    "bytecode": "0x60806040523480156200001157600080fd5b5060006040518060a00160405280606181526020016200175760619139604051602001620000409190620000fb565b60408051601f1981840301815291905290506200005d8162000064565b5062000174565b8051602080830191909120600081815291829052604091829020805460ff19166001179055905181907f64d6bce64323458c44643c51fe45113efc882082f7b7fd5f09f0d69d2eedb20290620000bc9085906200013f565b60405180910390a25050565b60005b83811015620000e5578181015183820152602001620000cb565b83811115620000f5576000848401525b50505050565b6e08cdee4eec2e4c8a4cae2eacae6e85608b1b8152600082516200012781600f850160208701620000c8565b602960f81b600f939091019283015250601001919050565b602081526000825180602084015262000160816040850160208701620000c8565b601f01601f19169190910160400192915050565b6115d380620001846000396000f3fe6080604052600436106100c05760003560e01c8063ad9f99c711610074578063d9210be51161004e578063d9210be51461021e578063e024dc7f1461023e578063e2b62f2d1461025f57600080fd5b8063ad9f99c7146101b9578063c3f28abd146101d9578063c722f177146101ee57600080fd5b806321fe98df116100a557806321fe98df146101235780632d0335ab146101535780639c7b45921461019757600080fd5b806301ffc9a7146100cc578063066a310c1461010157600080fd5b366100c757005b600080fd5b3480156100d857600080fd5b506100ec6100e7366004610fd5565b61027f565b60405190151581526020015b60405180910390f35b34801561010d57600080fd5b50610116610318565b6040516100f8919061107a565b34801561012f57600080fd5b506100ec61013e36600461108d565b60006020819052908152604090205460ff1681565b34801561015f57600080fd5b5061018961016e3660046110a6565b6001600160a01b031660009081526002602052604090205490565b6040519081526020016100f8565b3480156101a357600080fd5b506101b76101b2366004611111565b610334565b005b3480156101c557600080fd5b506101b76101d4366004611195565b61042b565b3480156101e557600080fd5b5061011661044c565b3480156101fa57600080fd5b506100ec61020936600461108d565b60016020526000908152604090205460ff1681565b34801561022a57600080fd5b506101b7610239366004611111565b610468565b61025161024c366004611195565b6105bf565b6040516100f892919061123d565b34801561026b57600080fd5b5061011661027a366004611260565b61082e565b60007fffffffff0000000000000000000000000000000000000000000000000000000082167f25e23e6400000000000000000000000000000000000000000000000000000000148061031257507f01ffc9a7000000000000000000000000000000000000000000000000000000007fffffffff000000000000000000000000000000000000000000000000000000008316145b92915050565b6040518060a00160405280606181526020016114eb6061913981565b6000469050600060405180608001604052806052815260200161154c6052913980519060200120868660405161036b9291906112b7565b604051809103902085856040516103839291906112b7565b6040805191829003822060208301949094528101919091526060810191909152608081018390523060a082015260c00160408051601f198184030181528282528051602080830191909120600081815260019283905293909320805460ff1916909117905592509081907f4bc68689cbe89a4a6333a3ab0a70093874da3e5bfb71e93102027f3f073687d89061041a90859061107a565b60405180910390a250505050505050565b610434876108c8565b6104438787878787878761094f565b50505050505050565b60405180608001604052806052815260200161154c6052913981565b60005b8381101561056a576000858583818110610487576104876112c7565b909101357fff0000000000000000000000000000000000000000000000000000000000000016915050600560fb1b811480159061050657507f29000000000000000000000000000000000000000000000000000000000000007fff00000000000000000000000000000000000000000000000000000000000000821614155b6105575760405162461bcd60e51b815260206004820152601560248201527f4657443a20696e76616c696420747970656e616d65000000000000000000000060448201526064015b60405180910390fd5b5080610562816112f3565b91505061046b565b50600084846040518060a00160405280606181526020016114eb60619139858560405160200161059e95949392919061130e565b60405160208183030381529060405290506105b881610b3c565b5050505050565b600060606105d28989898989898961094f565b6105db89610b9e565b60c089013515806105ef5750428960c00135115b61063b5760405162461bcd60e51b815260206004820152601460248201527f4657443a20726571756573742065787069726564000000000000000000000000604482015260640161054e565b600060408a01351561064c5750619c405b600061065b60a08c018c61137c565b61066860208e018e6110a6565b60405160200161067a939291906113c3565b60408051601f19818403018152919052905061069a8260608d01356113e9565b60405a6106a890603f611401565b6106b29190611420565b10156107005760405162461bcd60e51b815260206004820152601560248201527f4657443a20696e73756666696369656e74206761730000000000000000000000604482015260640161054e565b61071060408c0160208d016110a6565b6001600160a01b03168b606001358c60400135836040516107319190611442565b600060405180830381858888f193505050503d806000811461076f576040519150601f19603f3d011682016040523d82523d6000602084013e610774565b606091505b506040805180820190915260208082527f6578656375746520726573756c743a20737563636573733a202573207265743a9082015291955093506107b89085610c2c565b6107c183610ca3565b60408b0135158015906107d45750600047115b15610820576107e660208c018c6110a6565b6001600160a01b03166108fc479081150290604051600060405180830381858888f1935050505015801561081e573d6000803e3d6000fd5b505b505097509795505050505050565b60608361083e60208701876110a6565b6001600160a01b031661085760408801602089016110a6565b6001600160a01b03166040880135606089013560808a013561087c60a08c018c61137c565b60405161088a9291906112b7565b6040519081900381206108af9796959493929160c08e0135908c908c9060200161145e565b6040516020818303038152906040529050949350505050565b6080810135600260006108de60208501856110a6565b6001600160a01b03166001600160a01b03168152602001908152602001600020541461094c5760405162461bcd60e51b815260206004820152601360248201527f4657443a206e6f6e6365206d69736d6174636800000000000000000000000000604482015260640161054e565b50565b60008681526001602052604090205460ff166109ad5760405162461bcd60e51b815260206004820152601d60248201527f4657443a20756e7265676973746572656420646f6d61696e207365702e000000604482015260640161054e565b60008581526020819052604090205460ff16610a0b5760405162461bcd60e51b815260206004820152601a60248201527f4657443a20756e72656769737465726564207479706568617368000000000000604482015260640161054e565b600086610a1a8988888861082e565b8051602091820120604051610a619392017f190100000000000000000000000000000000000000000000000000000000000081526002810192909252602282015260420190565b60408051601f1981840301815291905280516020909101209050321580610ae65750610a9060208901896110a6565b6001600160a01b0316610adb84848080601f0160208091040260200160405190810160405280939291908181526020018383808284376000920191909152508693925050610d149050565b6001600160a01b0316145b610b325760405162461bcd60e51b815260206004820152601760248201527f4657443a207369676e6174757265206d69736d61746368000000000000000000604482015260640161054e565b5050505050505050565b8051602080830191909120600081815291829052604091829020805460ff19166001179055905181907f64d6bce64323458c44643c51fe45113efc882082f7b7fd5f09f0d69d2eedb20290610b9290859061107a565b60405180910390a25050565b608081013560026000610bb460208501856110a6565b6001600160a01b0316815260208101919091526040016000908120805491610bdb836112f3565b919050551461094c5760405162461bcd60e51b815260206004820152601360248201527f4657443a206e6f6e6365206d69736d6174636800000000000000000000000000604482015260640161054e565b610c9f8282604051602401610c429291906114b0565b60408051601f198184030181529190526020810180517bffffffffffffffffffffffffffffffffffffffffffffffffffffffff167fc3b5563500000000000000000000000000000000000000000000000000000000179052610d38565b5050565b61094c81604051602401610cb7919061107a565b60408051601f198184030181529190526020810180517bffffffffffffffffffffffffffffffffffffffffffffffffffffffff167f0be77f5600000000000000000000000000000000000000000000000000000000179052610d38565b6000806000610d238585610d41565b91509150610d3081610d87565b509392505050565b61094c81610ef0565b600080825160411415610d785760208301516040840151606085015160001a610d6c87828585610f11565b94509450505050610d80565b506000905060025b9250929050565b6000816004811115610d9b57610d9b6114d4565b1415610da45750565b6001816004811115610db857610db86114d4565b1415610e065760405162461bcd60e51b815260206004820152601860248201527f45434453413a20696e76616c6964207369676e61747572650000000000000000604482015260640161054e565b6002816004811115610e1a57610e1a6114d4565b1415610e685760405162461bcd60e51b815260206004820152601f60248201527f45434453413a20696e76616c6964207369676e6174757265206c656e67746800604482015260640161054e565b6003816004811115610e7c57610e7c6114d4565b141561094c5760405162461bcd60e51b815260206004820152602260248201527f45434453413a20696e76616c6964207369676e6174757265202773272076616c60448201527f7565000000000000000000000000000000000000000000000000000000000000606482015260840161054e565b60006a636f6e736f6c652e6c6f679050600080835160208501845afa505050565b6000807f7fffffffffffffffffffffffffffffff5d576e7357a4501ddfe92f46681b20a0831115610f485750600090506003610fcc565b6040805160008082526020820180845289905260ff881692820192909252606081018690526080810185905260019060a0016020604051602081039080840390855afa158015610f9c573d6000803e3d6000fd5b5050604051601f1901519150506001600160a01b038116610fc557600060019250925050610fcc565b9150600090505b94509492505050565b600060208284031215610fe757600080fd5b81357fffffffff000000000000000000000000000000000000000000000000000000008116811461101757600080fd5b9392505050565b60005b83811015611039578181015183820152602001611021565b83811115611048576000848401525b50505050565b6000815180845261106681602086016020860161101e565b601f01601f19169290920160200192915050565b602081526000611017602083018461104e565b60006020828403121561109f57600080fd5b5035919050565b6000602082840312156110b857600080fd5b81356001600160a01b038116811461101757600080fd5b60008083601f8401126110e157600080fd5b50813567ffffffffffffffff8111156110f957600080fd5b602083019150836020828501011115610d8057600080fd5b6000806000806040858703121561112757600080fd5b843567ffffffffffffffff8082111561113f57600080fd5b61114b888389016110cf565b9096509450602087013591508082111561116457600080fd5b50611171878288016110cf565b95989497509550505050565b600060e0828403121561118f57600080fd5b50919050565b600080600080600080600060a0888a0312156111b057600080fd5b873567ffffffffffffffff808211156111c857600080fd5b6111d48b838c0161117d565b985060208a0135975060408a0135965060608a01359150808211156111f857600080fd5b6112048b838c016110cf565b909650945060808a013591508082111561121d57600080fd5b5061122a8a828b016110cf565b989b979a50959850939692959293505050565b8215158152604060208201526000611258604083018461104e565b949350505050565b6000806000806060858703121561127657600080fd5b843567ffffffffffffffff8082111561128e57600080fd5b61129a8883890161117d565b955060208701359450604087013591508082111561116457600080fd5b8183823760009101908152919050565b634e487b7160e01b600052603260045260246000fd5b634e487b7160e01b600052601160045260246000fd5b6000600019821415611307576113076112dd565b5060010190565b84868237600085820160008152600560fb1b81528551611335816001840160208a0161101e565b7f2c00000000000000000000000000000000000000000000000000000000000000600192909101918201528385600283013760009301600201928352509095945050505050565b6000808335601e1984360301811261139357600080fd5b83018035915067ffffffffffffffff8211156113ae57600080fd5b602001915036819003821315610d8057600080fd5b8284823760609190911b6bffffffffffffffffffffffff19169101908152601401919050565b600082198211156113fc576113fc6112dd565b500190565b600081600019048311821515161561141b5761141b6112dd565b500290565b60008261143d57634e487b7160e01b600052601260045260246000fd5b500490565b6000825161145481846020870161101e565b9190910192915050565b8a81528960208201528860408201528760608201528660808201528560a08201528460c08201528360e082015260006101008385828501376000929093019092019081529a9950505050505050505050565b6040815260006114c3604083018561104e565b905082151560208301529392505050565b634e487b7160e01b600052602160045260246000fdfe616464726573732066726f6d2c6164647265737320746f2c75696e743235362076616c75652c75696e74323536206761732c75696e74323536206e6f6e63652c627974657320646174612c75696e743235362076616c6964556e74696c54696d65454950373132446f6d61696e28737472696e67206e616d652c737472696e672076657273696f6e2c75696e7432353620636861696e49642c6164647265737320766572696679696e67436f6e747261637429a26469706673582212209e357d0ba4dbd86cb7d64e47cc04f9c5884d06c66d867d88ce061f443e5a65f464736f6c63430008090033616464726573732066726f6d2c6164647265737320746f2c75696e743235362076616c75652c75696e74323536206761732c75696e74323536206e6f6e63652c627974657320646174612c75696e743235362076616c6964556e74696c54696d65",
    "linkReferences": {},
    "deployedLinkReferences": {}
}