{
    "_format": "hh-sol-artifact-1",
    "contractName": "PlaydappService",
    "sourceName": "contracts/PlaydappService.sol",
    "abi": [
        {
            "inputs": [
                {
                    "internalType": "address",
                    "name": "_vrf",
                    "type": "address"
                },
                {
                    "internalType": "address",
                    "name": "_link",
                    "type": "address"
                },
                {
                    "internalType": "bytes32",
                    "name": "_keyHash",
                    "type": "bytes32"
                },
                {
                    "internalType": "address",
                    "name": "_mergeFeeTokenAddress",
                    "type": "address"
                },
                {
                    "internalType": "uint256[]",
                    "name": "_mergeFee",
                    "type": "uint256[]"
                },
                {
                    "internalType": "uint256[]",
                    "name": "_probabilityOffset",
                    "type": "uint256[]"
                },
                {
                    "internalType": "uint256",
                    "name": "_modNumber",
                    "type": "uint256"
                },
                {
                    "internalType": "address[]",
                    "name": "_tokenAddresses",
                    "type": "address[]"
                },
                {
                    "internalType": "uint256[]",
                    "name": "_mergeMintCounts",
                    "type": "uint256[]"
                },
                {
                    "internalType": "uint256",
                    "name": "_mergeMintCountsOffset",
                    "type": "uint256"
                },
                {
                    "internalType": "bytes32[]",
                    "name": "_packIds",
                    "type": "bytes32[]"
                },
                {
                    "internalType": "uint256[]",
                    "name": "_prices",
                    "type": "uint256[]"
                },
                {
                    "internalType": "uint256[]",
                    "name": "_packMintCounts",
                    "type": "uint256[]"
                }
            ],
            "stateMutability": "nonpayable",
            "type": "constructor"
        },
        {
            "anonymous": false,
            "inputs": [
                {
                    "indexed": true,
                    "internalType": "bytes32",
                    "name": "requestId",
                    "type": "bytes32"
                },
                {
                    "indexed": false,
                    "internalType": "uint256",
                    "name": "randomness",
                    "type": "uint256"
                }
            ],
            "name": "FulfillRandomness",
            "type": "event"
        },
        {
            "anonymous": false,
            "inputs": [
                {
                    "indexed": true,
                    "internalType": "address",
                    "name": "previousOwner",
                    "type": "address"
                },
                {
                    "indexed": true,
                    "internalType": "address",
                    "name": "newOwner",
                    "type": "address"
                }
            ],
            "name": "OwnershipTransferred",
            "type": "event"
        },
        {
            "anonymous": false,
            "inputs": [
                {
                    "indexed": false,
                    "internalType": "address",
                    "name": "account",
                    "type": "address"
                }
            ],
            "name": "Paused",
            "type": "event"
        },
        {
            "anonymous": false,
            "inputs": [
                {
                    "indexed": true,
                    "internalType": "address",
                    "name": "to",
                    "type": "address"
                },
                {
                    "indexed": false,
                    "internalType": "uint256",
                    "name": "tokenId",
                    "type": "uint256"
                }
            ],
            "name": "PlaydappNFTMint",
            "type": "event"
        },
        {
            "anonymous": false,
            "inputs": [
                {
                    "indexed": true,
                    "internalType": "bytes32",
                    "name": "requestId",
                    "type": "bytes32"
                }
            ],
            "name": "RequestRandomness",
            "type": "event"
        },
        {
            "anonymous": false,
            "inputs": [
                {
                    "indexed": false,
                    "internalType": "uint256",
                    "name": "newFee",
                    "type": "uint256"
                },
                {
                    "indexed": false,
                    "internalType": "uint256",
                    "name": "oldFee",
                    "type": "uint256"
                }
            ],
            "name": "SetFee",
            "type": "event"
        },
        {
            "anonymous": false,
            "inputs": [
                {
                    "indexed": false,
                    "internalType": "bool",
                    "name": "newVal",
                    "type": "bool"
                },
                {
                    "indexed": false,
                    "internalType": "bool",
                    "name": "oldVal",
                    "type": "bool"
                }
            ],
            "name": "SetIsMintOnContract",
            "type": "event"
        },
        {
            "anonymous": false,
            "inputs": [
                {
                    "indexed": false,
                    "internalType": "address",
                    "name": "account",
                    "type": "address"
                }
            ],
            "name": "Unpaused",
            "type": "event"
        },
        {
            "inputs": [],
            "name": "getFee",
            "outputs": [
                {
                    "internalType": "uint256",
                    "name": "",
                    "type": "uint256"
                }
            ],
            "stateMutability": "view",
            "type": "function"
        },
        {
            "inputs": [
                {
                    "internalType": "bytes32",
                    "name": "packId",
                    "type": "bytes32"
                }
            ],
            "name": "getPackData",
            "outputs": [
                {
                    "internalType": "uint256",
                    "name": "",
                    "type": "uint256"
                },
                {
                    "internalType": "uint256",
                    "name": "",
                    "type": "uint256"
                }
            ],
            "stateMutability": "view",
            "type": "function"
        },
        {
            "inputs": [
                {
                    "internalType": "address",
                    "name": "holder",
                    "type": "address"
                },
                {
                    "internalType": "address[]",
                    "name": "mintTokenAddresses",
                    "type": "address[]"
                },
                {
                    "internalType": "uint256",
                    "name": "mergeType",
                    "type": "uint256"
                },
                {
                    "internalType": "address[]",
                    "name": "tokenAddresses",
                    "type": "address[]"
                },
                {
                    "internalType": "uint256[]",
                    "name": "tokenIds",
                    "type": "uint256[]"
                },
                {
                    "internalType": "uint256[]",
                    "name": "offset",
                    "type": "uint256[]"
                }
            ],
            "name": "merge",
            "outputs": [],
            "stateMutability": "nonpayable",
            "type": "function"
        },
        {
            "inputs": [
                {
                    "internalType": "uint256",
                    "name": "",
                    "type": "uint256"
                }
            ],
            "name": "mergeFee",
            "outputs": [
                {
                    "internalType": "uint256",
                    "name": "",
                    "type": "uint256"
                }
            ],
            "stateMutability": "view",
            "type": "function"
        },
        {
            "inputs": [],
            "name": "mergeFeeTokenAddress",
            "outputs": [
                {
                    "internalType": "address",
                    "name": "",
                    "type": "address"
                }
            ],
            "stateMutability": "view",
            "type": "function"
        },
        {
            "inputs": [
                {
                    "internalType": "address",
                    "name": "to",
                    "type": "address"
                },
                {
                    "internalType": "address",
                    "name": "tokenAddress",
                    "type": "address"
                },
                {
                    "internalType": "uint256",
                    "name": "count",
                    "type": "uint256"
                }
            ],
            "name": "mintTokens",
            "outputs": [],
            "stateMutability": "nonpayable",
            "type": "function"
        },
        {
            "inputs": [],
            "name": "modNumber",
            "outputs": [
                {
                    "internalType": "uint256",
                    "name": "",
                    "type": "uint256"
                }
            ],
            "stateMutability": "view",
            "type": "function"
        },
        {
            "inputs": [],
            "name": "owner",
            "outputs": [
                {
                    "internalType": "address",
                    "name": "",
                    "type": "address"
                }
            ],
            "stateMutability": "view",
            "type": "function"
        },
        {
            "inputs": [
                {
                    "internalType": "address",
                    "name": "to",
                    "type": "address"
                },
                {
                    "internalType": "address",
                    "name": "tokenAddress",
                    "type": "address"
                }
            ],
            "name": "ownerMintTo",
            "outputs": [],
            "stateMutability": "nonpayable",
            "type": "function"
        },
        {
            "inputs": [
                {
                    "internalType": "bytes32",
                    "name": "",
                    "type": "bytes32"
                }
            ],
            "name": "packIdToPackData",
            "outputs": [
                {
                    "internalType": "uint256",
                    "name": "price",
                    "type": "uint256"
                },
                {
                    "internalType": "uint256",
                    "name": "mintCount",
                    "type": "uint256"
                }
            ],
            "stateMutability": "view",
            "type": "function"
        },
        {
            "inputs": [],
            "name": "paused",
            "outputs": [
                {
                    "internalType": "bool",
                    "name": "",
                    "type": "bool"
                }
            ],
            "stateMutability": "view",
            "type": "function"
        },
        {
            "inputs": [
                {
                    "internalType": "uint256",
                    "name": "",
                    "type": "uint256"
                }
            ],
            "name": "probabilityOffset",
            "outputs": [
                {
                    "internalType": "uint256",
                    "name": "",
                    "type": "uint256"
                }
            ],
            "stateMutability": "view",
            "type": "function"
        },
        {
            "inputs": [
                {
                    "internalType": "address",
                    "name": "account",
                    "type": "address"
                },
                {
                    "internalType": "bytes32",
                    "name": "packId",
                    "type": "bytes32"
                },
                {
                    "internalType": "address",
                    "name": "payTokenAddress",
                    "type": "address"
                },
                {
                    "internalType": "address",
                    "name": "mintTokenAddress",
                    "type": "address"
                }
            ],
            "name": "purchasePackWithERC20",
            "outputs": [],
            "stateMutability": "nonpayable",
            "type": "function"
        },
        {
            "inputs": [
                {
                    "internalType": "bytes32",
                    "name": "requestId",
                    "type": "bytes32"
                },
                {
                    "internalType": "uint256",
                    "name": "randomness",
                    "type": "uint256"
                }
            ],
            "name": "rawFulfillRandomness",
            "outputs": [],
            "stateMutability": "nonpayable",
            "type": "function"
        },
        {
            "inputs": [],
            "name": "renounceOwnership",
            "outputs": [],
            "stateMutability": "nonpayable",
            "type": "function"
        },
        {
            "inputs": [
                {
                    "internalType": "bytes32",
                    "name": "",
                    "type": "bytes32"
                }
            ],
            "name": "requestIdToMergeData",
            "outputs": [
                {
                    "internalType": "address",
                    "name": "holder",
                    "type": "address"
                },
                {
                    "internalType": "uint256",
                    "name": "mergeType",
                    "type": "uint256"
                }
            ],
            "stateMutability": "view",
            "type": "function"
        },
        {
            "inputs": [
                {
                    "internalType": "uint256",
                    "name": "_fee",
                    "type": "uint256"
                }
            ],
            "name": "setFee",
            "outputs": [],
            "stateMutability": "nonpayable",
            "type": "function"
        },
        {
            "inputs": [
                {
                    "internalType": "uint256[]",
                    "name": "_fee",
                    "type": "uint256[]"
                }
            ],
            "name": "setMergeFee",
            "outputs": [],
            "stateMutability": "nonpayable",
            "type": "function"
        },
        {
            "inputs": [
                {
                    "internalType": "address",
                    "name": "_mergeFeeTokenAddress",
                    "type": "address"
                }
            ],
            "name": "setMergeFeeTokenAddress",
            "outputs": [],
            "stateMutability": "nonpayable",
            "type": "function"
        },
        {
            "inputs": [
                {
                    "internalType": "bytes32",
                    "name": "packId",
                    "type": "bytes32"
                },
                {
                    "internalType": "uint256",
                    "name": "price",
                    "type": "uint256"
                },
                {
                    "internalType": "uint256",
                    "name": "mintCount",
                    "type": "uint256"
                }
            ],
            "name": "setPackData",
            "outputs": [],
            "stateMutability": "nonpayable",
            "type": "function"
        },
        {
            "inputs": [
                {
                    "internalType": "uint256[]",
                    "name": "_probabilityOffset",
                    "type": "uint256[]"
                },
                {
                    "internalType": "uint256",
                    "name": "_modNumber",
                    "type": "uint256"
                }
            ],
            "name": "setProbability",
            "outputs": [],
            "stateMutability": "nonpayable",
            "type": "function"
        },
        {
            "inputs": [
                {
                    "internalType": "address",
                    "name": "tokenAddress",
                    "type": "address"
                },
                {
                    "internalType": "uint256[]",
                    "name": "_mintTokenCount",
                    "type": "uint256[]"
                }
            ],
            "name": "setTokenToMintCount",
            "outputs": [],
            "stateMutability": "nonpayable",
            "type": "function"
        },
        {
            "inputs": [
                {
                    "internalType": "address",
                    "name": "",
                    "type": "address"
                },
                {
                    "internalType": "uint256",
                    "name": "",
                    "type": "uint256"
                }
            ],
            "name": "tokenToMintCount",
            "outputs": [
                {
                    "internalType": "uint256",
                    "name": "",
                    "type": "uint256"
                }
            ],
            "stateMutability": "view",
            "type": "function"
        },
        {
            "inputs": [
                {
                    "internalType": "address",
                    "name": "newOwner",
                    "type": "address"
                }
            ],
            "name": "transferOwnership",
            "outputs": [],
            "stateMutability": "nonpayable",
            "type": "function"
        },
        {
            "inputs": [
                {
                    "internalType": "address",
                    "name": "to",
                    "type": "address"
                },
                {
                    "internalType": "address",
                    "name": "tokenAddress",
                    "type": "address"
                }
            ],
            "name": "withdrawalToken",
            "outputs": [],
            "stateMutability": "nonpayable",
            "type": "function"
        }
    ],
    "bytecode": "0x60c06040523480156200001157600080fd5b5060405162003cee38038062003cee83398181016040526101a08110156200003857600080fd5b8101908080519060200190929190805190602001909291908051906020019092919080519060200190929190805160405193929190846401000000008211156200008157600080fd5b838201915060208201858111156200009857600080fd5b8251866020820283011164010000000082111715620000b657600080fd5b8083526020830192505050908051906020019060200280838360005b83811015620000ef578082015181840152602081019050620000d2565b50505050905001604052602001805160405193929190846401000000008211156200011957600080fd5b838201915060208201858111156200013057600080fd5b82518660208202830111640100000000821117156200014e57600080fd5b8083526020830192505050908051906020019060200280838360005b83811015620001875780820151818401526020810190506200016a565b505050509050016040526020018051906020019092919080516040519392919084640100000000821115620001bb57600080fd5b83820191506020820185811115620001d257600080fd5b8251866020820283011164010000000082111715620001f057600080fd5b8083526020830192505050908051906020019060200280838360005b83811015620002295780820151818401526020810190506200020c565b50505050905001604052602001805160405193929190846401000000008211156200025357600080fd5b838201915060208201858111156200026a57600080fd5b82518660208202830111640100000000821117156200028857600080fd5b8083526020830192505050908051906020019060200280838360005b83811015620002c1578082015181840152602081019050620002a4565b505050509050016040526020018051906020019092919080516040519392919084640100000000821115620002f557600080fd5b838201915060208201858111156200030c57600080fd5b82518660208202830111640100000000821117156200032a57600080fd5b8083526020830192505050908051906020019060200280838360005b838110156200036357808201518184015260208101905062000346565b50505050905001604052602001805160405193929190846401000000008211156200038d57600080fd5b83820191506020820185811115620003a457600080fd5b8251866020820283011164010000000082111715620003c257600080fd5b8083526020830192505050908051906020019060200280838360005b83811015620003fb578082015181840152602081019050620003de565b50505050905001604052602001805160405193929190846401000000008211156200042557600080fd5b838201915060208201858111156200043c57600080fd5b82518660208202830111640100000000821117156200045a57600080fd5b8083526020830192505050908051906020019060200280838360005b838110156200049357808201518184015260208101905062000476565b505050509050016040525050508c8c8173ffffffffffffffffffffffffffffffffffffffff1660a08173ffffffffffffffffffffffffffffffffffffffff1660601b815250508073ffffffffffffffffffffffffffffffffffffffff1660808173ffffffffffffffffffffffffffffffffffffffff1660601b815250505050600062000524620007ea60201b60201c565b905080600160006101000a81548173ffffffffffffffffffffffffffffffffffffffff021916908373ffffffffffffffffffffffffffffffffffffffff1602179055508073ffffffffffffffffffffffffffffffffffffffff16600073ffffffffffffffffffffffffffffffffffffffff167f8be0079c531659141344cd1fd0a4f28419497f9722a3daafe3b4186f6b6457e060405160405180910390a3506000600160146101000a81548160ff0219169083151502179055508a600481905550655af3107a400060058190555089600360006101000a81548173ffffffffffffffffffffffffffffffffffffffff021916908373ffffffffffffffffffffffffffffffffffffffff16021790555088600290805190602001906200064b929190620007f2565b50876006908051906020019062000664929190620007f2565b508660078190555060008090505b86518110156200073c57600085820290505b85868302018110156200072d5760086000898481518110620006a257fe5b602002602001015173ffffffffffffffffffffffffffffffffffffffff1673ffffffffffffffffffffffffffffffffffffffff168152602001908152602001600020878281518110620006f157fe5b60200260200101519080600181540180825580915050600190039060005260206000200160009091909190915055808060010191505062000684565b50808060010191505062000672565b5060008090505b8351811015620007d65760405180604001604052808483815181106200076557fe5b602002602001015181526020018383815181106200077f57fe5b6020026020010151815250600a60008684815181106200079b57fe5b602002602001015181526020019081526020016000206000820151816000015560208201518160010155905050808060010191505062000743565b50505050505050505050505050506200086c565b600033905090565b82805482825590600052602060002090810192821562000831579160200282015b828111156200083057825182559160200191906001019062000813565b5b50905062000840919062000844565b5090565b6200086991905b80821115620008655760008160009055506001016200084b565b5090565b90565b60805160601c60a05160601c61344e620008a06000398061158c5280612e74525080612a1c5280612e38525061344e6000f3fe608060405234801561001057600080fd5b50600436106101735760003560e01c806394985ddd116100de578063d033004f11610097578063e5ac327a11610071578063e5ac327a14610b58578063e5bb655414610ba1578063f2fde38b14610be3578063f4641c4b14610c2757610173565b8063d033004f14610812578063dfe2f0ad14610856578063e18bc5b0146108ba57610173565b806394985ddd1461056b57806395d63033146105a3578063a53c5d4214610665578063c297fc67146106ae578063c5053b9c14610766578063ced72f87146107f457610173565b80636a886dff116101305780636a886dff146103995780636fc98ee1146103fd578063715018a61461046b5780638a941755146104755780638ad466b4146104d75780638da5cb5b1461052157610173565b806326404ba41461017857806354fe1d30146102505780635c975abb146102925780635faf1157146102b4578063635a81051461032957806369fe0e2d1461036b575b600080fd5b61024e6004803603604081101561018e57600080fd5b81019080803573ffffffffffffffffffffffffffffffffffffffff169060200190929190803590602001906401000000008111156101cb57600080fd5b8201836020820111156101dd57600080fd5b803590602001918460208302840111640100000000831117156101ff57600080fd5b919080806020026020016040519081016040528093929190818152602001838360200280828437600081840152601f19601f820116905080830192505050505050509192919290505050610c45565b005b6102906004803603606081101561026657600080fd5b81019080803590602001909291908035906020019092919080359060200190929190505050610d4c565b005b61029a610e3f565b604051808215151515815260200191505060405180910390f35b6102e0600480360360208110156102ca57600080fd5b8101908080359060200190929190505050610e56565b604051808373ffffffffffffffffffffffffffffffffffffffff1673ffffffffffffffffffffffffffffffffffffffff1681526020018281526020019250505060405180910390f35b6103556004803603602081101561033f57600080fd5b8101908080359060200190929190505050610e9a565b6040518082815260200191505060405180910390f35b6103976004803603602081101561038157600080fd5b8101908080359060200190929190505050610ebb565b005b6103fb600480360360408110156103af57600080fd5b81019080803573ffffffffffffffffffffffffffffffffffffffff169060200190929190803573ffffffffffffffffffffffffffffffffffffffff16906020019092919050505061102b565b005b6104696004803603606081101561041357600080fd5b81019080803573ffffffffffffffffffffffffffffffffffffffff169060200190929190803573ffffffffffffffffffffffffffffffffffffffff169060200190929190803590602001909291905050506111d5565b005b61047361139c565b005b6104c16004803603604081101561048b57600080fd5b81019080803573ffffffffffffffffffffffffffffffffffffffff1690602001909291908035906020019092919050505061150c565b6040518082815260200191505060405180910390f35b6104df61153a565b604051808273ffffffffffffffffffffffffffffffffffffffff1673ffffffffffffffffffffffffffffffffffffffff16815260200191505060405180910390f35b610529611560565b604051808273ffffffffffffffffffffffffffffffffffffffff1673ffffffffffffffffffffffffffffffffffffffff16815260200191505060405180910390f35b6105a16004803603604081101561058157600080fd5b81019080803590602001909291908035906020019092919050505061158a565b005b610663600480360360408110156105b957600080fd5b81019080803590602001906401000000008111156105d657600080fd5b8201836020820111156105e857600080fd5b8035906020019184602083028401116401000000008311171561060a57600080fd5b919080806020026020016040519081016040528093929190818152602001838360200280828437600081840152601f19601f82011690508083019250505050505050919291929080359060200190929190505050611659565b005b6106916004803603602081101561067b57600080fd5b810190808035906020019092919050505061172a565b604051808381526020018281526020019250505060405180910390f35b610764600480360360208110156106c457600080fd5b81019080803590602001906401000000008111156106e157600080fd5b8201836020820111156106f357600080fd5b8035906020019184602083028401116401000000008311171561071557600080fd5b919080806020026020016040519081016040528093929190818152602001838360200280828437600081840152601f19601f820116905080830192505050505050509192919290505050611764565b005b6107f26004803603608081101561077c57600080fd5b81019080803573ffffffffffffffffffffffffffffffffffffffff16906020019092919080359060200190929190803573ffffffffffffffffffffffffffffffffffffffff169060200190929190803573ffffffffffffffffffffffffffffffffffffffff16906020019092919050505061182d565b005b6107fc611bb1565b6040518082815260200191505060405180910390f35b6108546004803603602081101561082857600080fd5b81019080803573ffffffffffffffffffffffffffffffffffffffff169060200190929190505050611bbb565b005b6108b86004803603604081101561086c57600080fd5b81019080803573ffffffffffffffffffffffffffffffffffffffff169060200190929190803573ffffffffffffffffffffffffffffffffffffffff169060200190929190505050611d20565b005b610b56600480360360c08110156108d057600080fd5b81019080803573ffffffffffffffffffffffffffffffffffffffff1690602001909291908035906020019064010000000081111561090d57600080fd5b82018360208201111561091f57600080fd5b8035906020019184602083028401116401000000008311171561094157600080fd5b919080806020026020016040519081016040528093929190818152602001838360200280828437600081840152601f19601f82011690508083019250505050505050919291929080359060200190929190803590602001906401000000008111156109ab57600080fd5b8201836020820111156109bd57600080fd5b803590602001918460208302840111640100000000831117156109df57600080fd5b919080806020026020016040519081016040528093929190818152602001838360200280828437600081840152601f19601f82011690508083019250505050505050919291929080359060200190640100000000811115610a3f57600080fd5b820183602082011115610a5157600080fd5b80359060200191846020830284011164010000000083111715610a7357600080fd5b919080806020026020016040519081016040528093929190818152602001838360200280828437600081840152601f19601f82011690508083019250505050505050919291929080359060200190640100000000811115610ad357600080fd5b820183602082011115610ae557600080fd5b80359060200191846020830284011164010000000083111715610b0757600080fd5b919080806020026020016040519081016040528093929190818152602001838360200280828437600081840152601f19601f820116905080830192505050505050509192919290505050612089565b005b610b8460048036036020811015610b6e57600080fd5b8101908080359060200190929190505050612512565b604051808381526020018281526020019250505060405180910390f35b610bcd60048036036020811015610bb757600080fd5b8101908080359060200190929190505050612536565b6040518082815260200191505060405180910390f35b610c2560048036036020811015610bf957600080fd5b81019080803573ffffffffffffffffffffffffffffffffffffffff169060200190929190505050612557565b005b610c2f61274c565b6040518082815260200191505060405180910390f35b610c4d612752565b73ffffffffffffffffffffffffffffffffffffffff16610c6b611560565b73ffffffffffffffffffffffffffffffffffffffff1614610cf4576040517f08c379a00000000000000000000000000000000000000000000000000000000081526004018080602001828103825260208152602001807f4f776e61626c653a2063616c6c6572206973206e6f7420746865206f776e657281525060200191505060405180910390fd5b80600860008473ffffffffffffffffffffffffffffffffffffffff1673ffffffffffffffffffffffffffffffffffffffff1681526020019081526020016000209080519060200190610d47929190613205565b505050565b610d54612752565b73ffffffffffffffffffffffffffffffffffffffff16610d72611560565b73ffffffffffffffffffffffffffffffffffffffff1614610dfb576040517f08c379a00000000000000000000000000000000000000000000000000000000081526004018080602001828103825260208152602001807f4f776e61626c653a2063616c6c6572206973206e6f7420746865206f776e657281525060200191505060405180910390fd5b604051806040016040528083815260200182815250600a60008581526020019081526020016000206000820151816000015560208201518160010155905050505050565b6000600160149054906101000a900460ff16905090565b60096020528060005260406000206000915090508060000160009054906101000a900473ffffffffffffffffffffffffffffffffffffffff16908060010154905082565b60028181548110610ea757fe5b906000526020600020016000915090505481565b610ec3612752565b73ffffffffffffffffffffffffffffffffffffffff16610ee1611560565b73ffffffffffffffffffffffffffffffffffffffff1614610f6a576040517f08c379a00000000000000000000000000000000000000000000000000000000081526004018080602001828103825260208152602001807f4f776e61626c653a2063616c6c6572206973206e6f7420746865206f776e657281525060200191505060405180910390fd5b60008111610fe0576040517f08c379a000000000000000000000000000000000000000000000000000000000815260040180806020018281038252601a8152602001807f466565206d7573742062652067726165746572207468616e203000000000000081525060200191505060405180910390fd5b7f032dc6a2d839eb179729a55633fdf1c41a1fc4739394154117005db2b354b9b581600554604051808381526020018281526020019250505060405180910390a18060058190555050565b611033612752565b73ffffffffffffffffffffffffffffffffffffffff16611051611560565b73ffffffffffffffffffffffffffffffffffffffff16146110da576040517f08c379a00000000000000000000000000000000000000000000000000000000081526004018080602001828103825260208152602001807f4f776e61626c653a2063616c6c6572206973206e6f7420746865206f776e657281525060200191505060405180910390fd5b6110e2610e3f565b15611155576040517f08c379a00000000000000000000000000000000000000000000000000000000081526004018080602001828103825260108152602001807f5061757361626c653a207061757365640000000000000000000000000000000081525060200191505060405180910390fd5b600073ffffffffffffffffffffffffffffffffffffffff168273ffffffffffffffffffffffffffffffffffffffff16141580156111be57503073ffffffffffffffffffffffffffffffffffffffff168273ffffffffffffffffffffffffffffffffffffffff1614155b6111c757600080fd5b6111d1828261275a565b5050565b6111dd612752565b73ffffffffffffffffffffffffffffffffffffffff166111fb611560565b73ffffffffffffffffffffffffffffffffffffffff1614611284576040517f08c379a00000000000000000000000000000000000000000000000000000000081526004018080602001828103825260208152602001807f4f776e61626c653a2063616c6c6572206973206e6f7420746865206f776e657281525060200191505060405180910390fd5b61128c610e3f565b156112ff576040517f08c379a00000000000000000000000000000000000000000000000000000000081526004018080602001828103825260108152602001807f5061757361626c653a207061757365640000000000000000000000000000000081525060200191505060405180910390fd5b600073ffffffffffffffffffffffffffffffffffffffff168373ffffffffffffffffffffffffffffffffffffffff161415801561136857503073ffffffffffffffffffffffffffffffffffffffff168373ffffffffffffffffffffffffffffffffffffffff1614155b61137157600080fd5b60008090505b8181101561139657611389848461275a565b8080600101915050611377565b50505050565b6113a4612752565b73ffffffffffffffffffffffffffffffffffffffff166113c2611560565b73ffffffffffffffffffffffffffffffffffffffff161461144b576040517f08c379a00000000000000000000000000000000000000000000000000000000081526004018080602001828103825260208152602001807f4f776e61626c653a2063616c6c6572206973206e6f7420746865206f776e657281525060200191505060405180910390fd5b600073ffffffffffffffffffffffffffffffffffffffff16600160009054906101000a900473ffffffffffffffffffffffffffffffffffffffff1673ffffffffffffffffffffffffffffffffffffffff167f8be0079c531659141344cd1fd0a4f28419497f9722a3daafe3b4186f6b6457e060405160405180910390a36000600160006101000a81548173ffffffffffffffffffffffffffffffffffffffff021916908373ffffffffffffffffffffffffffffffffffffffff160217905550565b6008602052816000526040600020818154811061152557fe5b90600052602060002001600091509150505481565b600360009054906101000a900473ffffffffffffffffffffffffffffffffffffffff1681565b6000600160009054906101000a900473ffffffffffffffffffffffffffffffffffffffff16905090565b7f000000000000000000000000000000000000000000000000000000000000000073ffffffffffffffffffffffffffffffffffffffff163373ffffffffffffffffffffffffffffffffffffffff161461164b576040517f08c379a000000000000000000000000000000000000000000000000000000000815260040180806020018281038252601f8152602001807f4f6e6c7920565246436f6f7264696e61746f722063616e2066756c66696c6c0081525060200191505060405180910390fd5b611655828261286b565b5050565b611661612752565b73ffffffffffffffffffffffffffffffffffffffff1661167f611560565b73ffffffffffffffffffffffffffffffffffffffff1614611708576040517f08c379a00000000000000000000000000000000000000000000000000000000081526004018080602001828103825260208152602001807f4f776e61626c653a2063616c6c6572206973206e6f7420746865206f776e657281525060200191505060405180910390fd5b816006908051906020019061171e929190613205565b50806007819055505050565b600080600a600084815260200190815260200160002060000154600a60008581526020019081526020016000206001015491509150915091565b61176c612752565b73ffffffffffffffffffffffffffffffffffffffff1661178a611560565b73ffffffffffffffffffffffffffffffffffffffff1614611813576040517f08c379a00000000000000000000000000000000000000000000000000000000081526004018080602001828103825260208152602001807f4f776e61626c653a2063616c6c6572206973206e6f7420746865206f776e657281525060200191505060405180910390fd5b8060029080519060200190611829929190613205565b5050565b611835612752565b73ffffffffffffffffffffffffffffffffffffffff16611853611560565b73ffffffffffffffffffffffffffffffffffffffff16146118dc576040517f08c379a00000000000000000000000000000000000000000000000000000000081526004018080602001828103825260208152602001807f4f776e61626c653a2063616c6c6572206973206e6f7420746865206f776e657281525060200191505060405180910390fd5b6118e4610e3f565b15611957576040517f08c379a00000000000000000000000000000000000000000000000000000000081526004018080602001828103825260108152602001807f5061757361626c653a207061757365640000000000000000000000000000000081525060200191505060405180910390fd5b600073ffffffffffffffffffffffffffffffffffffffff168473ffffffffffffffffffffffffffffffffffffffff16141580156119c057503073ffffffffffffffffffffffffffffffffffffffff168473ffffffffffffffffffffffffffffffffffffffff1614155b6119c957600080fd5b6000600a600085815260200190815260200160002060000154118015611a0557506000600a600085815260200190815260200160002060010154115b611a77576040517f08c379a00000000000000000000000000000000000000000000000000000000081526004018080602001828103825260118152602001807f4e6f7420736574207061636b206461746100000000000000000000000000000081525060200191505060405180910390fd5b60008290508073ffffffffffffffffffffffffffffffffffffffff166323b872dd8630600a6000898152602001908152602001600020600001546040518463ffffffff1660e01b8152600401808473ffffffffffffffffffffffffffffffffffffffff1673ffffffffffffffffffffffffffffffffffffffff1681526020018373ffffffffffffffffffffffffffffffffffffffff1673ffffffffffffffffffffffffffffffffffffffff1681526020018281526020019350505050602060405180830381600087803b158015611b4d57600080fd5b505af1158015611b61573d6000803e3d6000fd5b505050506040513d6020811015611b7757600080fd5b810190808051906020019092919050505050611baa8583600a6000888152602001908152602001600020600101546111d5565b5050505050565b6000600554905090565b611bc3612752565b73ffffffffffffffffffffffffffffffffffffffff16611be1611560565b73ffffffffffffffffffffffffffffffffffffffff1614611c6a576040517f08c379a00000000000000000000000000000000000000000000000000000000081526004018080602001828103825260208152602001807f4f776e61626c653a2063616c6c6572206973206e6f7420746865206f776e657281525060200191505060405180910390fd5b600073ffffffffffffffffffffffffffffffffffffffff168173ffffffffffffffffffffffffffffffffffffffff1614158015611cd357503073ffffffffffffffffffffffffffffffffffffffff168173ffffffffffffffffffffffffffffffffffffffff1614155b611cdc57600080fd5b80600360006101000a81548173ffffffffffffffffffffffffffffffffffffffff021916908373ffffffffffffffffffffffffffffffffffffffff16021790555050565b611d28612752565b73ffffffffffffffffffffffffffffffffffffffff16611d46611560565b73ffffffffffffffffffffffffffffffffffffffff1614611dcf576040517f08c379a00000000000000000000000000000000000000000000000000000000081526004018080602001828103825260208152602001807f4f776e61626c653a2063616c6c6572206973206e6f7420746865206f776e657281525060200191505060405180910390fd5b600073ffffffffffffffffffffffffffffffffffffffff168273ffffffffffffffffffffffffffffffffffffffff1614158015611e3857503073ffffffffffffffffffffffffffffffffffffffff168273ffffffffffffffffffffffffffffffffffffffff1614155b611e4157600080fd5b600081905060008173ffffffffffffffffffffffffffffffffffffffff166370a08231306040518263ffffffff1660e01b8152600401808273ffffffffffffffffffffffffffffffffffffffff1673ffffffffffffffffffffffffffffffffffffffff16815260200191505060206040518083038186803b158015611ec557600080fd5b505afa158015611ed9573d6000803e3d6000fd5b505050506040513d6020811015611eef57600080fd5b810190808051906020019092919050505011611f0a57600080fd5b8073ffffffffffffffffffffffffffffffffffffffff1663a9059cbb848373ffffffffffffffffffffffffffffffffffffffff166370a08231306040518263ffffffff1660e01b8152600401808273ffffffffffffffffffffffffffffffffffffffff1673ffffffffffffffffffffffffffffffffffffffff16815260200191505060206040518083038186803b158015611fa457600080fd5b505afa158015611fb8573d6000803e3d6000fd5b505050506040513d6020811015611fce57600080fd5b81019080805190602001909291905050506040518363ffffffff1660e01b8152600401808373ffffffffffffffffffffffffffffffffffffffff1673ffffffffffffffffffffffffffffffffffffffff16815260200182815260200192505050602060405180830381600087803b15801561204857600080fd5b505af115801561205c573d6000803e3d6000fd5b505050506040513d602081101561207257600080fd5b810190808051906020019092919050505050505050565b612091612752565b73ffffffffffffffffffffffffffffffffffffffff166120af611560565b73ffffffffffffffffffffffffffffffffffffffff1614612138576040517f08c379a00000000000000000000000000000000000000000000000000000000081526004018080602001828103825260208152602001807f4f776e61626c653a2063616c6c6572206973206e6f7420746865206f776e657281525060200191505060405180910390fd5b612140610e3f565b156121b3576040517f08c379a00000000000000000000000000000000000000000000000000000000081526004018080602001828103825260108152602001807f5061757361626c653a207061757365640000000000000000000000000000000081525060200191505060405180910390fd5b600073ffffffffffffffffffffffffffffffffffffffff168673ffffffffffffffffffffffffffffffffffffffff161415801561221c57503073ffffffffffffffffffffffffffffffffffffffff168673ffffffffffffffffffffffffffffffffffffffff1614155b61222557600080fd5b600083511161227f576040517f08c379a00000000000000000000000000000000000000000000000000000000081526004018080602001828103825260228152602001806133f76022913960400191505060405180910390fd5b80518351146122d9576040517f08c379a000000000000000000000000000000000000000000000000000000000815260040180806020018281038252602a81526020018061337c602a913960400191505060405180910390fd5b6000600360009054906101000a900473ffffffffffffffffffffffffffffffffffffffff1690508073ffffffffffffffffffffffffffffffffffffffff166323b872dd88306002898154811061232b57fe5b90600052602060002001546040518463ffffffff1660e01b8152600401808473ffffffffffffffffffffffffffffffffffffffff1673ffffffffffffffffffffffffffffffffffffffff1681526020018373ffffffffffffffffffffffffffffffffffffffff1673ffffffffffffffffffffffffffffffffffffffff1681526020018281526020019350505050602060405180830381600087803b1580156123d257600080fd5b505af11580156123e6573d6000803e3d6000fd5b505050506040513d60208110156123fc57600080fd5b81019080805190602001909291905050505061241a878585856128b1565b6000612424612a15565b905060405180606001604052808973ffffffffffffffffffffffffffffffffffffffff168152602001878152602001888152506009600083815260200190815260200160002060008201518160000160006101000a81548173ffffffffffffffffffffffffffffffffffffffff021916908373ffffffffffffffffffffffffffffffffffffffff1602179055506020820151816001015560408201518160020190805190602001906124d7929190613252565b50905050807fe7e9d173875e49599c9dc06ea20fd1d8878525700b2711462f8379cccdc637eb60405160405180910390a25050505050505050565b600a6020528060005260406000206000915090508060000154908060010154905082565b6006818154811061254357fe5b906000526020600020016000915090505481565b61255f612752565b73ffffffffffffffffffffffffffffffffffffffff1661257d611560565b73ffffffffffffffffffffffffffffffffffffffff1614612606576040517f08c379a00000000000000000000000000000000000000000000000000000000081526004018080602001828103825260208152602001807f4f776e61626c653a2063616c6c6572206973206e6f7420746865206f776e657281525060200191505060405180910390fd5b600073ffffffffffffffffffffffffffffffffffffffff168173ffffffffffffffffffffffffffffffffffffffff16141561268c576040517f08c379a00000000000000000000000000000000000000000000000000000000081526004018080602001828103825260268152602001806133a66026913960400191505060405180910390fd5b8073ffffffffffffffffffffffffffffffffffffffff16600160009054906101000a900473ffffffffffffffffffffffffffffffffffffffff1673ffffffffffffffffffffffffffffffffffffffff167f8be0079c531659141344cd1fd0a4f28419497f9722a3daafe3b4186f6b6457e060405160405180910390a380600160006101000a81548173ffffffffffffffffffffffffffffffffffffffff021916908373ffffffffffffffffffffffffffffffffffffffff16021790555050565b60075481565b600033905090565b60008173ffffffffffffffffffffffffffffffffffffffff16636a627842846040518263ffffffff1660e01b8152600401808273ffffffffffffffffffffffffffffffffffffffff1673ffffffffffffffffffffffffffffffffffffffff168152602001915050602060405180830381600087803b1580156127db57600080fd5b505af11580156127ef573d6000803e3d6000fd5b505050506040513d602081101561280557600080fd5b810190808051906020019092919050505090508273ffffffffffffffffffffffffffffffffffffffff167f6dcbd0b4ca61992d2e0edc5150bf4d5493fe191d1c00bd8b24306eadfe0dd82b826040518082815260200191505060405180910390a2505050565b817fff09b167d89d6f235b4a38e51c52a2645f43226b3f0ce099709b53cfee6f53ed826040518082815260200191505060405180910390a26128ad8282612b5c565b5050565b600080905060008090505b8451811015612a0d5760008582815181106128d357fe5b6020026020010151905060008090505b8483815181106128ef57fe5b60200260200101518110156129fe578173ffffffffffffffffffffffffffffffffffffffff166323b872dd89612923611560565b89888060010199508151811061293557fe5b60200260200101516040518463ffffffff1660e01b8152600401808473ffffffffffffffffffffffffffffffffffffffff1673ffffffffffffffffffffffffffffffffffffffff1681526020018373ffffffffffffffffffffffffffffffffffffffff1673ffffffffffffffffffffffffffffffffffffffff1681526020018281526020019350505050600060405180830381600087803b1580156129d957600080fd5b505af11580156129ed573d6000803e3d6000fd5b5050505080806001019150506128e3565b505080806001019150506128bc565b505050505050565b60006005547f000000000000000000000000000000000000000000000000000000000000000073ffffffffffffffffffffffffffffffffffffffff166370a08231306040518263ffffffff1660e01b8152600401808273ffffffffffffffffffffffffffffffffffffffff1673ffffffffffffffffffffffffffffffffffffffff16815260200191505060206040518083038186803b158015612ab757600080fd5b505afa158015612acb573d6000803e3d6000fd5b505050506040513d6020811015612ae157600080fd5b81019080805190602001909291905050501015612b49576040517f08c379a000000000000000000000000000000000000000000000000000000000815260040180806020018281038252602b8152602001806133cc602b913960400191505060405180910390fd5b612b57600454600554612e34565b905090565b612b646132dc565b600960008481526020019081526020016000206040518060600160405290816000820160009054906101000a900473ffffffffffffffffffffffffffffffffffffffff1673ffffffffffffffffffffffffffffffffffffffff1673ffffffffffffffffffffffffffffffffffffffff1681526020016001820154815260200160028201805480602002602001604051908101604052809291908181526020018280548015612c6757602002820191906000526020600020905b8160009054906101000a900473ffffffffffffffffffffffffffffffffffffffff1673ffffffffffffffffffffffffffffffffffffffff1681526020019060010190808311612c1d575b5050505050815250509050600081602001511415612caa57612ca581600001518260400151600081518110612c9857fe5b602002602001015161275a565b612e2f565b6000612cc16007548461304090919063ffffffff16565b905060008090505b600680549050811015612d5f576000811415612d075760068181548110612cec57fe5b90600052602060002001548211612d0257612d5f565b612d52565b60066001820381548110612d1757fe5b906000526020600020015482118015612d47575060068181548110612d3857fe5b90600052602060002001548211155b15612d5157612d5f565b5b8080600101915050612cc9565b60008090505b836040015151811015612e2b5760008090505b6008600086604001518481518110612d8c57fe5b602002602001015173ffffffffffffffffffffffffffffffffffffffff1673ffffffffffffffffffffffffffffffffffffffff1681526020019081526020016000208381548110612dd957fe5b9060005260206000200154811015612e1d57612e10856000015186604001518481518110612e0357fe5b602002602001015161275a565b8080600101915050612d78565b508080600101915050612d65565b5050505b505050565b60007f000000000000000000000000000000000000000000000000000000000000000073ffffffffffffffffffffffffffffffffffffffff16634000aea07f00000000000000000000000000000000000000000000000000000000000000008486600060405160200180838152602001828152602001925050506040516020818303038152906040526040518463ffffffff1660e01b8152600401808473ffffffffffffffffffffffffffffffffffffffff1673ffffffffffffffffffffffffffffffffffffffff16815260200183815260200180602001828103825283818151815260200191508051906020019080838360005b83811015612f44578082015181840152602081019050612f29565b50505050905090810190601f168015612f715780820380516001836020036101000a031916815260200191505b50945050505050602060405180830381600087803b158015612f9257600080fd5b505af1158015612fa6573d6000803e3d6000fd5b505050506040513d6020811015612fbc57600080fd5b8101908080519060200190929190505050506000612fef84600030600080898152602001908152602001600020546130ca565b905061301760016000808781526020019081526020016000205461314490919063ffffffff16565b6000808681526020019081526020016000208190555061303784826131cc565b91505092915050565b6000808214156130b8576040517f08c379a00000000000000000000000000000000000000000000000000000000081526004018080602001828103825260188152602001807f536166654d6174683a206d6f64756c6f206279207a65726f000000000000000081525060200191505060405180910390fd5b8183816130c157fe5b06905092915050565b600084848484604051602001808581526020018481526020018373ffffffffffffffffffffffffffffffffffffffff1673ffffffffffffffffffffffffffffffffffffffff1681526020018281526020019450505050506040516020818303038152906040528051906020012060001c9050949350505050565b6000808284019050838110156131c2576040517f08c379a000000000000000000000000000000000000000000000000000000000815260040180806020018281038252601b8152602001807f536166654d6174683a206164646974696f6e206f766572666c6f77000000000081525060200191505060405180910390fd5b8091505092915050565b60008282604051602001808381526020018281526020019250505060405160208183030381529060405280519060200120905092915050565b828054828255906000526020600020908101928215613241579160200282015b82811115613240578251825591602001919060010190613225565b5b50905061324e9190613313565b5090565b8280548282559060005260206000209081019282156132cb579160200282015b828111156132ca5782518260006101000a81548173ffffffffffffffffffffffffffffffffffffffff021916908373ffffffffffffffffffffffffffffffffffffffff16021790555091602001919060010190613272565b5b5090506132d89190613338565b5090565b6040518060600160405280600073ffffffffffffffffffffffffffffffffffffffff16815260200160008152602001606081525090565b61333591905b80821115613331576000816000905550600101613319565b5090565b90565b61337891905b8082111561337457600081816101000a81549073ffffffffffffffffffffffffffffffffffffffff02191690555060010161333e565b5090565b9056fe496e76616c696420506172616d657465722028746f6b656e4164647265737365732c206f6666736574294f776e61626c653a206e6577206f776e657220697320746865207a65726f20616464726573734e6f7420656e6f756768204c494e4b202d2066696c6c20636f6e7472616374207769746820666175636574496e76616c696420506172616d657465722028746f6b656e41646472657373657329a2646970667358221220a487cd410ccefe30881980e025f0de8bdeced85492de36fb55aec80072b2522864736f6c63430006060033",
    "linkReferences": {},
    "deployedLinkReferences": {}
}